:10F000003DC0000056C0000054C0000052C00000C7
:10F0100050C000004EC000004CC000004AC00000BC
:10F0200048C0000046C0000044C0000042C00000CC
:10F0300040C000003EC000003CC000003AC00000DC
:10F0400038C0000036C0000034C0000032C00000EC
:10F0500030C000002EC000002CC000002AC00000FC
:10F0600028C0000026C0000024C0000022C000000C
:10F0700020C000001EC000001CC0000011241FBEE4
:10F08000CFEFD0E1DEBFCDBF11E0A0E0B1E0E2E81C
:10F09000FDEF02C005900D92A634B107D9F725E027
:10F0A000A6E4B1E001C01D92A53AB207E1F7B3D5DD
:10F0B000F6C5A6CF84FD5B9A9BB18295807F9F7039
:10F0C000892B8BB95A9A08950F931F93DC01CB01BA
:10F0D0000297A109B109209195012695222331F0CB
:10F0E0002695880F991FAA1FBB1FF8CF0091890191
:10F0F00010918A0120918B0130918C01BC01CD01CE
:10F10000600F711F821F931F1F910F9108950DB4FF
:10F1100007FEFDCF08958FEF8EBDF9DF8EB5089500
:10F12000FF920F931F93CF93DF93C82FD42F152FE8
:10F13000062FF72EF0DF8C2F80648EBDE8DFFEBC3B
:10F14000E6DF0EBDE4DF1EBDE2DFDEBDE0DFCC2387
:10F1500021F0C83021F487E803C085E901C08FEFB2
:10F160008EBDD5DFC4E1D7DF87FF02C0C150D9F71C
:10F17000CDB7DEB7E5E0DFC5449A08954798089516
:10F18000EF92FF920F931F93CF937C014598C0E1BC
:10F1900000E010E8F3DFC70180239123892B11F0F1
:10F1A000459A01C0459816950795479AC15091F721
:10F1B000E5DFCF911F910F91FF90EF900895449854
:10F1C0000895FDDF80E09FEBDBDFD6CFF8DF8FEF28
:10F1D00090E4D6DFD1CF5B9808955A980895809136
:10F1E000470190914801891B8F7329F480919803FE
:10F1F000811101C00895809197038F5F80939703D9
:10F2000080919803882329F0E8DFE5DF10929803C6
:10F2100016C08091470190914801891B8F7379F046
:10F2200081E08093980390914801E92FF0E0E75B3B
:10F23000FE4F80819F5F9F73909348013BDF87E87B
:10F2400093E10197F1F700C00000C9CF9091480108
:10F25000209147019150921B9F739230B8F02091FA
:10F260004701E22FF0E0E75BFE4F30E4839FC001EF
:10F270001124806890E034E0959587953A95E1F700
:10F28000808311822E5F2F7320934701DB018D91C4
:10F290008823E1F090914801209147019150921B01
:10F2A0009F739230A0F390914701E92FF0E0E75B64
:10F2B000FE4F282F22952F70206120838F70806150
:10F2C00081839E5F9F7390934701E1CF88CFA6E033
:10F2D000B0E0ECE6F9E716C5F999FECF8091A105FB
:10F2E0009091A20523E0FC0120935700E89507B612
:10F2F00000FCFDCFAFE9B3E02C91FC01EF59F340E6
:10F30000EA0FFB1F11964C91119730E0342B41E02E
:10F31000090140935700E89511241296F4E0AF39A3
:10F32000BF0751F725E0FC0120935700E89507B689
:10F3300000FCFDCF21E120935700E8959395909331
:10F34000A2058093A105009729F480E38983FE013B
:10F35000329623C0E0E021E02E0FF0E0E756FC4FAC
:10F360006AE070E0ABD48083CB01E22F009799F77D
:10F37000DE011196622FCD01662351F06150462FB8
:10F3800050E047565C4FFA013081305D3D93F4CF39
:10F39000FC01E20FF11D263009F01082BE016F5F03
:10F3A0007F4F81E053DF2696E2E0C8C4A2E0B0E0E0
:10F3B000EBEDF9E7A1C46EE071E080E047DF8091FA
:10F3C000C0008D7F8093C0001092C50087E28093BB
:10F3D000C4008091C10080618093C100F12C00E0E5
:10F3E00010E08091C00087FFFCCF8091C600813F74
:10F3F00010F0873FB1F721E0F216B9F0F21620F0D5
:10F4000092E0F91631F1EDCFF801E15CFE4F908109
:10F41000981309C0D6DE0F5F1F4F0630110509F79C
:10F42000FF24F394DCCFD2DEDACF87FDD7CF98016B
:10F430002F5F3F4FFE01E00FF11F81832230310526
:10F4400011F08901CECFE12C82E0F82EC12CD12C15
:10F45000C6CF87FD19C0F601E156FC4F00FF0EC074
:10F460008F709081892B80832FEFC216D10409F011
:10F4700008F4E80E8FEFC81AD80A03C08295807F7F
:10F4800080830F5F1F4FADCF873F09F0AACF8981DF
:10F490008F37A9F48A81811121C001151105F1F47A
:10F4A00060E071E0D3DE9FEF28E08DE391502040D3
:10F4B0008040E1F700C000002296E8E039C491E006
:10F4C000C916D90659F48E3749F48A81811106C0CC
:10F4D00080919F04E81202C0FADE80CF77DE7ECFF3
:10F4E000E9DD87E893E10197F1F700C0000075DEE0
:10F4F00072DE87E99AE30197F1F700C000000895F2
:10F50000CF93C82F82958F70EBDF8C2F8F70E8DF41
:10F51000CF910895539A529A8AB1806F8AB95BDE6F
:10F520005CDE2FE78AE196E0215080409040E1F7D1
:10F5300000C0000083E0D4DF8FE097E20197F1F78D
:10F5400000C0000083E0CCDF8FE097E20197F1F785
:10F5500000C0000083E0C4DF8FE097E20197F1F77D
:10F5600000C0000082E0BCDF88E2CADF8CE0C8DFB8
:10F5700086E0C6DF81E0C4DF82E0C2DF109298033C
:10F5800008952C9A0895279A259A2698249AF9DFA7
:10F59000249AF7DF8DB58E7F8DBD80E58CBD0895F3
:10F5A000CF92DF92EF92FF921F93CF93DF93EBDF27
:10F5B0002E9A10924601E5DFCAE08FEF8EBDA7DDDF
:10F5C000C150D9F72C98CFEFDFEF40E050E0BA01FF
:10F5D00080E0A6DD182F813021F02197B1F7C1E03E
:10F5E00051C04AEA51E060E070E088E099DD82FFB6
:10F5F00003C0109246010AC08EDD8DDD8CDD80FFD8
:10F60000EECF89DD8A3A59F7109346018091460181
:10F61000813021F0C12CD12C760105C0C12CD12C18
:10F62000E12C80E4F82ECFEFDFEF40E050E0BA01AC
:10F6300087E376DDB701A60189E272DD882319F040
:10F64000219799F7CCCF80914601813089F440E031
:10F6500050E0BA018AE364DD8111C1CF5CDD86FF31
:10F6600003C082E08093460156DD55DD54DD09C0BC
:10F6700040E052E060E070E080E152DDC1E08111E5
:10F6800001C0C0E07EDF8C2FDF91CF911F91FF90F2
:10F69000EF90DF90CF900895CF93DF93AB01BC0143
:10F6A0002C9880914601823039F089E0440F551F33
:10F6B000661F771F8A95D1F781E132DD811119C06C
:10F6C000CFEFDFEF28DD8F3F19F42197D9F713C073
:10F6D0008E3F89F4C7E9D1E01EDD88831CDD898374
:10F6E000229683E0C739D807B9F715DD14DDC0E0ED
:10F6F00003C0C4E001C0C9E044DF81E0C11101C022
:10F7000080E0DF91CF910895C7DF81111EC0809105
:10F7100095039091960385359A4AC9F48091CD015D
:10F72000863431F48091CE01813411F480E109C036
:10F730008091E901863469F48091EA01813449F4C9
:10F7400080E28093960180E0089582E0089583E04E
:10F75000089584E00895CF92DF92EF92FF92109285
:10F7600096011EDF81117DC060E070E0CB01CCDF2F
:10F770009EEF980F923008F475C0843071F4C090F9
:10F780005D03D0905E03E0905F03F0906003C701DB
:10F79000B601BADF882321F065C0C12CD12C7601D7
:10F7A0008091AD019091AE0120919601203219F027
:10F7B000A0E0B0E008C08091BB019091BC01A09195
:10F7C000BD01B091BE013091A701323021F4880F04
:10F7D000991FAA1FBB1F4091A5015091A601C40EFD
:10F7E000D51EE11CF11CC0928D01D0928E01E092D9
:10F7F0008F01F09290013091A401309395018C0D0E
:10F800009D1DAE1DBF1D203249F45091C301409192
:10F81000C4013091C5012091C60104C0582F492F61
:10F820003A2F2B2F509391014093920130939301E3
:10F83000209394012091A8013091A90144E03695CC
:10F8400027954A95E1F7820F931FA11DB11D809363
:10F85000890190938A01A0938B01B0938C0180E081
:10F8600001C081E0FF90EF90DF90CF900895A0E07D
:10F87000B0E0ECE3FCE740C2EC01CC80DD80EE8040
:10F88000FF80C114D104E104F10409F47DC0998121
:10F8900080919501981378C002E0C016D104E1046C
:10F8A000F10408F488C040918D0150918E0160915F
:10F8B0008F017091900180919601803129F4BB27CE
:10F8C000AF2D9E2D8D2D09C0D701C601E7E0B6955D
:10F8D000A79597958795EA95D1F78A019B01080F1F
:10F8E000191F2A1F3B1FC901B801D6DE811163C051
:10F8F000809196018031A1F4DD24EE24FF24C6011D
:10F90000880F991FFC01E956FE4F4081518160E04C
:10F9100070E0411551056105710509F44CC018C02E
:10F92000E894C7F8DD24EE24FF24C601880F991F50
:10F93000880F991FFC01E956FE4F40815181628179
:10F9400073817F704115510561057105B1F533C0B3
:10F9500021E0DB01CA010297A109B1098E3E9F4F48
:10F96000A105B105A8F5E42F352FCB01222319F10C
:10F97000EC833D838E839F836E2F732FA5DB688777
:10F9800079878A879B871982688579858A859B858F
:10F9900083DE811110C088859985AA85BB85019673
:10F9A000A11DB11D88879987AA87BB8789818F5F31
:10F9B000898380E00FC082E00DC021E0DB01CA0135
:10F9C0000297A109B1098E3E9F4FAF4FBF4058F239
:10F9D00020E0C9CFCDB7DEB7E8E0AAC1EF92FF9231
:10F9E0000F931F93CF93DF937C01EB0180E3FB0127
:10F9F00011928A95E9F72091960160919101709199
:10FA000092018091930190919401203229F46C83AA
:10FA10007D838E839F8358DB688779878A879B875E
:10FA2000EA811E2F1F70C1F08A819B8101969B8302
:10FA30008A83BE01605F7F4F40E2149FF001112472
:10FA4000E956FE4F80E2DB0101900D928A95E1F7C5
:10FA50008889811106C00DC0CE0109DF882321F3FA
:10FA600008C09B8D93FDDCCF8E32D1F2853EC1F272
:10FA700002C087E033C04BE050E0C70112D1892BB0
:10FA800079F66AA57BA58CA19DA1409196018B0179
:10FA90009C010250110921093109403139F40E3E0F
:10FAA000EFEF1E072105310540F017C00E3EFFEFB6
:10FAB0001F072F07FFE03F0780F421E028836C83B6
:10FAC0007D838E839F831982FFDA688779878A878F
:10FAD0009B871B821A8280E001C086E0CDB7DEB72B
:10FAE000E6E028C1A0E3B0E0E7E7FDE701C184B1AB
:10FAF000876084B985B1876085B92DDE811108C022
:10FB0000BE016F5F7F4F83E391E068DF882389F058
:10FB10005DDB6CE171E080E099DB9FEF21E18AE73A
:10FB2000915020408040E1F700C00000E096ECE0FA
:10FB3000FBC065E271E080E089DB8DA49EA4AFA4E8
:10FB4000B8A88FE9E82E83E0F82EC12CD12C00E074
:10FB500011E081149104A104B10409F441C08B8126
:10FB60009C81892BA1F02B813C8180E092E0821B5B
:10FB7000930B0817190708F4C801AC0160E070E0A6
:10FB800084169506A606B70640F4C40106C0CE0149
:10FB900001966DDE882339F323C0D901A956BE4FE3
:10FBA000F701E80EF91EEE15FF0519F04D9141938E
:10FBB000FACF280F391F3C832B83081B190BC80E63
:10FBC000D91E881A990AA108B1082115324029F0D6
:10FBD0000115110509F0BDCF03C01C821B82F8CFAF
:10FBE0008DA69EA6AFA6B8AAC114D10411F06FDBF2
:10FBF000A4CF81149104A104B10409F089CF60E07D
:10FC000071E080E023DB9FEF28E08DE391502040FE
:10FC10008040E1F789CFCF93DF9384B714BE809102
:10FC2000600088618093600010926000F8943F9AB1
:10FC30003C9A3E98A1DAA2DA3F9A3C9A3D9A9CDA25
:10FC4000BEDA9ADAD8E0C0E0CC0F86B186FB88270E
:10FC500080F9C82B479A92DAD150B1F78FEF97E02D
:10FC600078D0D82F882329F060E08FEF97E079D003
:10FC700002C0CF3F41F0A5DA4DDCC7FF02C0DD2353
:10FC800011F030DF02C0C6FF91DBE091A305F091D7
:10FC9000A405099580E090E0DF91CF910895F89454
:10FCA0006EC0FB01DC0104C08D910190801921F42C
:10FCB00041505040C8F7881B990B0895AA1BBB1BE5
:10FCC00051E107C0AA1FBB1FA617B70710F0A61B5C
:10FCD000B70B881F991F5A95A9F780959095BC017D
:10FCE000CD0108952F923F924F925F926F927F9233
:10FCF0008F929F92AF92BF92CF92DF92EF92FF923C
:10FD00000F931F93CF93DF93CDB7DEB7CA1BDB0BE7
:10FD10000FB6F894DEBF0FBECDBF09942A8839888C
:10FD200048885F846E847D848C849B84AA84B98493
:10FD3000C884DF80EE80FD800C811B81AA81B9819F
:10FD4000CE0FD11D0FB6F894DEBF0FBECDBFED01B3
:10FD50000895F999FECF92BD81BDF89A992780B593
:10FD60000895262FF999FECF1FBA92BD81BD20BDFF
:10FD70000FB6F894FA9AF99A0FBE01960895F8947E
:02FD8000FFCFB3
:10FD8200446F6E65202020202020202020005379FF
:10FD920078207570646174652E2E2E0053442065A0
:10FDA20072726F72005344207570646174652E2EF6
:10FDB2002E2000414D42494B41202042494E00F045
:06FDC20000210200040014
:040000030000F00009
:00000001FF
