:100000000C945E160C9486160C9486160C94861628
:100010000C9486160C9486160C9486160C948616F0
:100020000C9486160C9486160C9486160C94021D5D
:100030000C9486160C9486160C9486160C948918CB
:100040000C9486160C9486160C9486160C948616C0
:100050000C9486160C9486160C9486160C948616B0
:100060000C9486160C9486160C9486160C948616A0
:100070000C9486160C9486160C948616E81A031BAC
:100080000B1C1E1B391B4D1B0B1C0B1C3A42404208
:100090004F424F423A4240424F424F42F3441A4588
:1000A000314538455345884556458345E74FED4F23
:1000B00006502B501B50205025502950B666BF6665
:1000C00012671867CF67CF67CF67CF67CF67CF67F4
:1000D000926797679C67A767BC6701007F1502005E
:1000E0007F2A03007F0004007F0005007F000600D8
:1000F0007F007800000400010000100001010001F1
:100100001000001600002A00011600012A0000005D
:10011000000000000500250100FF10000000003F66
:1001200001000100007F0100FF11010001003F01FB
:10013000000203E8180100FF0E020002003F010068
:100140000303C0400100FF0F030003003F01000450
:100150000500250100FF120000000040010005001D
:10016000007F0100FF13010001004001000603E8C9
:10017000180100FF14020002004001000703C04004
:100180000100FF15030003004001000801003F01CA
:1001900000FF16B900040041010009060005010036
:1001A000FF17BA0006004101000A01003F0100FFED
:1001B00018410008004101000B07000A0100FF1967
:1001C000000000004101000C01003F0100FF1A0582
:1001D0000005004101000D01003F0100FF1B5C0014
:1001E0005C004101000E01003F0100FF0CBD00BD9D
:1001F000004101000F01001F0100FF0DBE00EE00D5
:100200004101001000007F0100FF4AEF00EF0043B2
:1002100001001101003F0100FF47090009004301EF
:1002200000120800020100FF1C0A000A004301003E
:100230001300007F0100FF1DEF00EF0044010014D8
:1002400001003F0100FF1E090009004401001508DC
:1002500000020100FF1F0A000A004401001601000D
:100260003F0100FF030B000B004301001701003F9B
:100270000100FF090C000C00430104000200020110
:1002800000FFFF130013000000001800007F0308A8
:100290000049C1000D004501001900007F0308005E
:1002A0004B0E000E004501001A00007F03080046B7
:1002B0000F000F004501001B00007F0308004810DD
:1002C0000010004501001F0900020308002C110066
:1002D00011004201001D0A008E0308002D120012B9
:1002E000004201001C0B00130308002E0000000058
:1002F0004201003100007F0100FF2F1200120014A4
:100300000000300B00030100FF300000000014006B
:10031000040102000D0100FFFF1A00190000000097
:10032000320C00180E0301FF4200150019000033C3
:100330000D00120E0301FF16001600190000340311
:10034000C13F0E0301FF4100080019000402020032
:10035000030100FFFF1D001C000000005C0C001EDC
:10036000040302FF170017001C00005D0C001E04B0
:100370000302FF180018001C00005E0E000A0403B0
:1003800002FF070007001C00017000007F0100FF52
:10039000071E001E002800017103FE020100FFFF7E
:1003A00046001F002800017203817F0100FF5E03E9
:1003B000000300280001730100280100FF5F4400D2
:1003C0002000280001740F001F0100FFFF240024FB
:1003D00000280001750400010100FF4421002100F4
:1003E0002800017601003F0100FF052200220028BD
:1003F0000001771000020100FF664500230028007D
:1004000001781100050100FF6725002500FD0001AE
:10041000790301040100FF6802000200FD00017A77
:100420000200150100FF6926002600FD00017B1572
:10043000000E0100FF6A2E002E00FD00017C01016C
:10044000200100FFFF32002F002501017D01012066
:100450000100FFFF330030002501017E0101200172
:1004600000FFFF340031002501017F12000401006C
:10047000FF6B0A000A00280004030200050100FFC8
:10048000FF2800280000000200190010060403FFE6
:10049000270027002800020113007F060403FF2C19
:1004A000002C002800020213007F060403FF2D0029
:1004B0002D00280002181427F00100FFFF29002951
:1004C00000480102191600050100FFFF3500350044
:1004D0004801021A00007F0100FFFF4100080048A8
:1004E00001021B0100080100FFFF2A002B00480148
:1004F000030017000F0100FFFF3D003D0036000321
:10050000011800040100FFFF3E003E003600030218
:100510000400010100FFFF380038004A0103030412
:1005200000010100FFFF370037004A010304040007
:10053000010100FFFF390039004A010305040001F1
:100540000100FFFF3A003B004A01030604000101DD
:1005500000FFFF3C003C004A0100010203040506C5
:100560000708090A0B0C0D0E0F10111213141516A3
:1005700017191A1B1C1F1EFF1D191A1B1C1F1EFFFB
:100580001D191A1B1C1F1EFF1D2120232425232497
:10059000252324252324252324252324252324251A
:1005A000232425232425232425232425232425230C
:1005B00024252324252728292728292728292728CF
:1005C00029FFFFFFFFFFFFFFFF2A2B2C2D2E2F30CF
:1005D000313233343536373839FEFEFEFEFEFEFE4C
:1005E000FEFEFEFEFEFEFEFEFEFEFEFEFEFEFEFE2B
:1005F000FEFEFEFEFEFEFEFEFEFEFEFEFEFEFEFE1B
:10060000FEFEFEFEFEFEFEFEFEFEFEFEFEFEFEFE0A
:10061000FEFEFEFEFEFEFEFEFEFFFFFFFFFFFFFFF3
:10062000FFFFFFFFFFFFFFFFFFFFFFFFFFFFFFFFDA
:10063000FFFFFFFFFFFFFFFFFFFFFFFFFFFFFFFFCA
:10064000FFFFFFFFFFFFFFFFFF00000000000000B3
:10065000000000000000000000FFFFFF16FF30FF59
:100660002AFF17FFFF0E0F0203000104050607080B
:10067000090A0B0C0D12131415FFFFFFFFFFFFFFFC
:10068000FFFFFFFFFF1D1E1F2021FFFFFF1D1E1F7D
:10069000FFFFFFFFFF1D1E1FFFFFFFFFFF2FFF1BC1
:1006A000111C19101AFFFF1BFF1C19FF1AFFFF1B5B
:1006B000FF1C19FF1AFFFF2C2DFFFFFFFFFFFF316B
:1006C0003233343539FFFFFFFFFFFFFFFFFFFFFF2E
:1006D000FFFFFFFFFFFFFFFFFF2D303132333435C7
:1006E0003637383900204343232044442320452013
:1006F0004646232047472320414123204200000053
:100700000000000000004700490083008900F60057
:10071000F90015016F009400B300FF005501FC00C3
:100720000F010A010000000015013901290124010F
:10073000000078000000000000000001000A101016
:100740001001FFFF8080CCCC20200020406080A0E2
:10075000C0FF0010204080FF8040202020200000AB
:100760008040BC643C64B0643064BC643C64B0648D
:100770003064BC643C64B064B0E4BC643C64B064A9
:10078000306400000000010000000220F40C200092
:100790001F0000000000600000000000180000289A
:1007A000143C0027000000280028002F000000282B
:1007B0006428003F00000048000000000100030220
:1007C00000030300040000040100050600060C00FD
:1007D0000B0C000C060002123F0E12101004200633
:1007E0000410030400040500050B000B0C000000BE
:1007F000000000000000AB028E03000455051C073A
:100800000008AB0A001055150020AB2A00405555D2
:100810000080000060484030242018100C080604B6
:10082000030201808386898C8F9295989B9EA1A458
:10083000A7AAADB0B3B6B8BBBEC1C3C6C8CBCDD0F6
:10084000D2D4D7D9DBDDDFE1E3E5E7E9EAECEEEF8F
:10085000F0F2F3F4F6F7F8F9F9FAFBFCFCFDFDFD14
:10086000FEFEFEFEFEFEFEFDFDFDFCFCFBFAF9F9C0
:10087000F8F7F6F4F3F2F0EFEEECEAE9E7E5E3E19E
:10088000DFDDDBD9D7D4D2D0CDCBC8C6C3C1BEBB88
:10089000B8B6B3B0ADAAA7A4A19E9B9895928F8C31
:1008A000898683807C797673706D6A6764615E5B2C
:1008B0005855524F4C494744413E3C393734322F0A
:1008C0002D2B28262422201E1C1A18161513111051
:1008D0000F0D0C0B090807060605040303020202AC
:1008E00001010101010101020202030304050606E0
:1008F0000708090B0C0D0F1011131516181A1C1EE2
:1009000020222426282B2D2F323437393C3E4144D7
:1009100047494C4F5255585B5E6164676A6D70730E
:1009200076797C8080858A8F94999DA2A7ACB1B599
:10093000BABEC2C7CBCFD2D6DADDE0E3E6E9ECEE51
:10094000F1F3F5F6F8F9FBFCFCFDFEFEFEFEFEFD04
:10095000FDFCFBFAF9F8F6F4F3F1EFEDEAE8E6E373
:10096000E0DEDBD8D5D2CFCCC9C6C3C0BDB9B6B3E3
:10097000B0ADAAA7A4A19F9C999794928F8D8B89C3
:1009800087858382807F7D7C7B7A7978787777769C
:10099000767676767676767777787879797A7B7BDD
:1009A0007C7D7E7F80808182838484858686878724
:1009B00088888989898989898989888887878685B6
:1009C000848382807F7D7C7A78767472706D6B68A8
:1009D0006663605E5B5855524F4C4946423F3C3916
:1009E0003633302D2A2724211F1C19171512100EFB
:1009F0000C0B0907060504030202010101010102B3
:100A00000303040607090A0C0E111316191C1F22F2
:100A100025292D3034383D41454A4E53585D626694
:100A20006B70757A8080878F969EA5ACB4BAC1C76B
:100A3000CDD3D9DEE3E7EBEFF2F5F8FAFBFDFEFEEE
:100A4000FEFEFDFCFAF9F7F4F2EFECE8E5E1DDD9A2
:100A5000D5D1CDC9C6C2BEBAB7B3B0ADAAA8A5A3F9
:100A6000A2A09F9E9E9E9E9E9FA0A2A3A5A8AAAD67
:100A7000B0B3B7BABEC2C6C9CDD1D5D9DDE1E5E8BC
:100A8000ECEFF2F4F7F9FAFCFDFEFEFEFEFDFBFAD8
:100A9000F8F5F2EFEBE7E3DED9D3CDC7C1BAB4ACDA
:100AA000A59E968F8780787069615A534B453E3872
:100AB000322C26211C1814100D0A0705040201010E
:100AC000010102030506080B0D1013171A1E22263A
:100AD0002A2E3236393D4145484C4F5255575A5CC3
:100AE0005D5F606161616161605F5D5C5A57555235
:100AF0004F4C4845413D3936322E2A26221E1A17C0
:100B000013100D0B08060503020101010102040583
:100B1000070A0D1014181C21262C32383E454B5361
:100B20005A6169707880808890989FA7ADB4B9BEEB
:100B3000C3C6C9CBCCCCCCCBC9C7C4C0BCB8B3AE80
:100B4000A9A4A09B97938F8C8A88878787888A8D92
:100B50009094999EA4AAB0B7BEC5CCD3D9E0E5EBDA
:100B6000F0F4F7FAFCFEFEFEFCFAF7F4F0EBE5E039
:100B7000D9D3CCC5BEB7B0AAA49E9994908D8A88CB
:100B8000878787888A8C8F93979BA0A4A9AEB3B8D8
:100B9000BCC0C4C7C9CBCCCCCCCBC9C6C3BEB9B40E
:100BA000ADA79F98908880776F676058524B4641F9
:100BB0003C3936343333333436383B3F43474C517A
:100BC000565B5F64686C7073757778787877757248
:100BD0006F6B66615B554F48413A332C261F1A14E0
:100BE0000F0B0805030101010305080B0F141A1F61
:100BF000262C333A41484F555B61666B6F727577AF
:100C0000787878777573706C68645F5B56514C4781
:100C1000433F3B3836343333333436393C41464B2B
:100C2000525860676F7780010101010102030305DB
:100C300006080A0D1013171B20252B31383E464D90
:100C4000555D666E778089919AA3ACB4BCC4CCD351
:100C5000DAE0E6EBEFF3F7FAFCFDFEFEFDFCFAF856
:100C6000F4F1ECE7E2DCD5CEC7BFB8B0A79F968E13
:100C7000857D746C645C544C453E37312B25201BBC
:100C800017130F0C09060402010101010101010102
:100C90000101010101010101010101010101010144
:100CA0000101010101010101010101010101010233
:100CB00002020203030304040505060606070707EC
:100CC00007060605040302010101010101010101FA
:100CD0000101010101010101010101010101010104
:100CE00001010101010101010101010101010101F4
:100CF00001010101010101010101010101010101E4
:100D000001010101010101010101010101010101D3
:100D100001010101010101010101010101010101C3
:100D200001010101010101010101010102030507A6
:100D3000090D11161B2229313A434D58636E7A86EC
:100D4000919DA9B4BFC9D3DCE4EBF1F6F9FCFEFE3A
:100D5000FDFBF8F4EFEAE3DCD4CCC3BBB2A9A19964
:100D6000928B847F7A777473727374777A7F848BB3
:100D70009299A1A9B2BBC3CCD4DCE3EAEFF4F8FBAF
:100D8000FDFEFEFCF9F6F1EBE4DCD3C9BFB4A99D8E
:100D900091867A6E63584D433A3129221B16110D04
:100DA000090705030201010101010101010101011E
:100DB0000101010101010101010101010101010123
:100DC0000101010101010101010101010101010113
:100DD0000101010101010101010101010101010103
:100DE00001010101010101010101010101010101F3
:100DF00001010101010101010101010101010101E3
:100E000001010101010101010101010101010101D2
:100E100001010101010101010101010101010101C2
:100E2000010101010101010101403D3A3734312E38
:100E30002B2825221F1C191613100D0A0704010266
:100E400005080B0E1114171A1D202326292C2F32EA
:100E500035383B3E4144474A4D505356595C5F62DA
:100E600065686B6E7174777A7D808285888B8E91D0
:100E700094979A9DA0A3A6A9ACAFB2B5B8BBBEC1CA
:100E8000C4C7CACDD0D3D6D9DCDFE2E5E8EBEEF1BA
:100E9000F4F7FAFDFEFBF8F5F2EFECE9E6E3E0DD4E
:100EA000DAD7D4D1CECBC8C5C2BFC2C5C8CBCED18C
:100EB000D4D7DADDE0E3E6E9ECEFF2F5F8FBFEFD8E
:100EC000FAF7F4F1EEEBE8E5E2DFDCD9D6D3D0CDEA
:100ED000CAC7C4C1BEBBB8B5B2AFACA9A6A3A09DDA
:100EE0009A9794918E8B888582807D7A7774716EC3
:100EF0006B6865625F5C595653504D4A4744413EAA
:100F00003B3835322F2C292623201D1A1714110E99
:100F10000B0805020104070A0D101316191C1F22E5
:100F200025282B2E3134373A3D40807C7874706C04
:100F30006864605C5854504C4844403C3834302C11
:100F40002925211D1915110D09050105090D111579
:100F5000191D2125292C3034383C4044484C50542C
:100F6000585C6064686C7074787C8083878B8F9326
:100F7000979B9FA3A7ABAFB3B7BBBFC3C7CBCFD321
:100F8000D6DADEE2E6EAEEF2F6FAFEFAF6F2EEEA99
:100F9000E6E2DEDAD6D3CFCBC7C3BFBBB7B3AFABC6
:100FA000A7A39F9B97938F8B87838083878B8F9338
:100FB000979B9FA3A7ABAFB3B7BBBFC3C7CBCFD3E1
:100FC000D6DADEE2E6EAEEF2F6FAFEFAF6F2EEEA59
:100FD000E6E2DEDAD6D3CFCBC7C3BFBBB7B3AFAB86
:100FE000A7A39F9B97938F8B8783807C7874706C6B
:100FF0006864605C5854504C4844403C3834302C51
:101000002925211D1915110D09050105090D1115B8
:10101000191D2125292C3034383C4044484C50546B
:10102000585C6064686C7074787C80010102020313
:1010300003030404050506060607070809090A0A4A
:101040000B0B0C0C0D0E0E0F1010111213131415A8
:1010500016171718191A1B1C1D1E1F2021222324C6
:10106000252628292A2B2D2E2F3132343537383A90
:101070003B3D3F40424446484A4C4E5052545658DD
:101080005A5D5F626467696C6F7174777A7D808383
:10109000878A8D9194989B9FA3A7ABAFB3B7BCC031
:1010A000C5C9CED3D8DDE2E8EDF3F8FEF8F3EDE8FC
:1010B000E2DDD8D3CEC9C5C0BCB7B3AFABA7A39F41
:1010C0009B9894918D8A8783807D7A7774716F6CF9
:1010D000696764625F5D5A58565452504E4C4A4894
:1010E000464442403F3D3B3A3837353432312F2E6B
:1010F0002D2B2A2928262524232221201F1E1D1CB2
:101100001B1A191817171615141313121110100F94
:101110000E0E0D0C0C0B0B0A0A0909080707060630
:1011200006050504040303030202010101070C1173
:10113000161B2024292D3034383B3E4144474A4D6C
:101140004F525456585A5C5E606263656668696ABD
:101150006C6D6E6F7071727374757676777878795E
:101160007A7A7B7B7C7D7D7D7E7E7F7F80808081A7
:101170008182828283848485858687878889898A1B
:101180008B8C8D8E8F90919293959697999A9C9D2A
:101190009FA1A3A5A7A9ABADB0B2B5B8BBBEC1C452
:1011A000C7CBCFD2D6DBDFE4E9EEF3F8FEF8F3EEFF
:1011B000E9E4DFDBD6D2CFCBC7C4C1BEBBB8B5B282
:1011C000B0ADABA9A7A5A3A19F9D9C9A9997969511
:1011D000939291908F8E8D8C8B8A89898887878650
:1011E000858584848382828281818080807F7F7EE6
:1011F0007E7D7D7D7C7B7B7A7A7978787776767553
:1012000074737271706F6E6D6C6A69686665636223
:10121000605E5C5A585654524F4D4A4744413E3BDB
:101220003834302D2924201B16110C0701F1E5D983
:10123000CDC2B8AEA49B938A827B746D66605A540B
:101240004F4A45403C3733302C292623201D1B189C
:10125000161412100E0D0B0A0908070605040403E4
:101260000302020101010101010101010202020365
:1012700003040405050606070809090A0B0C0D0DF1
:101280000E0F1011121314151617191A1B1C1D1E00
:101290001F21222324252728292A2C2D2E303132C4
:1012A00033353637393A3B3D3E4041424445464866
:1012B000494B4C4D4F505253545657595A5C5D5EF2
:1012C000606163646667686A6B6D6E707173747574
:1012D00077787A7B7D7E808182848587888A8B8DF2
:1012E0008E909193949597989A9B9D9EA0A1A3A46C
:1012F000A6A7A9AAACADAEB0B1B3B4B6B7B9BABCE3
:10130000BDBFC0C2C3C5C6C7C9CACCCDCFD0D2D35A
:10131000D5D6D8D9DBDCDEDFE1E2E3E5E6E8E9EBD0
:10132000ECEEEFF1F2F4F5F7F8FAFBFDFEF10B1439
:101330001D262E363E454D535A60666C72777D826F
:10134000868B9094989CA0A3A7AAAEB1B4B7BABC60
:10135000BFC1C4C6C8CACCCED0D2D4D5D7D9DADCA6
:10136000DDDEE0E1E2E3E4E5E6E7E8E9EAEBECEC28
:10137000EDEEEFEFF0F0F1F2F2F3F3F4F4F5F5F552
:10138000F6F6F7F7F7F8F8F8F8F9F9F9F9FAFAFADA
:10139000FAFBFBFBFBFBFCFCFCFCFCFCFCFDFDFD91
:1013A000FDFDFDFDFDFDFDFEFEFEFEFEFEFEF4EB81
:1013B000E2D9D1C9C1BAB2ACA59F99938D88827D7B
:1013C00079746F6B67635F5C5855514E4B4845436A
:1013D000403E3B39373533312F2D2B2A2826252304
:1013E00022211F1E1D1C1B1A191817161514131362
:1013F000121110100F0F0E0D0D0C0C0B0B0A0A0A18
:10140000090908080807070707060606060505056F
:101410000504040404040303030303030302020298
:1014200002020202020202010101010101010BFE9E
:10143000F8ECDCC7B0977D644D3725160B0401022C
:10144000060D1723313F4E5C6A76818A91969999F1
:101450009895918B857E78716B65605D5A58585967
:101460005A5D6064686D72767B7F8285888A8B8C1A
:101470008C8B8B8A88878584838181808080808122
:101480008283848688898B8D8F909293949596978A
:101490009798989898989899999999999A9A9B9BBE
:1014A0009C9D9E9FA0A1A2A3A4A5A6A7A7A8A9A909
:1014B000AAABABACACADADAEAEAFAFB0B0B1B2B24B
:1014C000B3B4B5B5B6B7B8B8B9BABBBBBCBDBDBE91
:1014D000BFBFC0C1C1C2C3C3C4C4C5C6C6C7C8C8D4
:1014E000C9CACACBCCCCCDCECECFD0D1D1D2D3D31A
:1014F000D4D5D5D6D7D7D8D9D9DADADBDCDCDDDE5E
:10150000DEDFE0E1E1E2E3E3E4E5E5E6E7E7E8E9A1
:10151000E9EAEBEBECEDEDEEEFEFF0F1F1F2F3F3E6
:10152000F4F5F5F6F7F7F8F9F9FAFBFBFCFDFDFE2B
:101530004348515D6C7D8FA2B4C5D5E2EDF6FBFE4C
:10154000FEFBF7F0E8DFD5CBC1B8B0A9A39E9B9A0C
:101550009A9B9EA1A6ABB0B5BABFC4C8CBCDCFCF26
:10156000CFCFCDCCC9C7C4C1BEBCB9B7B5B4B3B376
:10157000B3B3B4B5B6B8B9BBBCBEBFC0C1C1C2C2BB
:10158000C2C2C2C1C0C0BFBEBDBCBCBBBBBABABA7E
:10159000BABABABBBBBBBCBCBDBDBDBEBEBEBEBE87
:1015A000BEBEBEBEBEBEBDBDBDBDBDBCBCBCBCBC6A
:1015B000BCB7AEA29382705D4B3A2A1D120904019A
:1015C0000104080F17202A343E474F565C616465BA
:1015D0006564615E59544F4A45403B373432303080
:1015E0003030323336383B3E414346484A4B4C4C10
:1015F0004C4C4B4A494746444341403F3E3E3D3DAB
:101600003D3D3D3E3F3F40414243434444454545C7
:10161000454545444444434342424241414141419E
:10162000414141414141424242424243434343439B
:101630004301010101010101010101010101010158
:101640000101010101010155555555555555555596
:10165000555555555555555555555555555555553A
:10166000555555555555555555555555555555552A
:1016700055AAAAAAAAAAAAAAAAAAAAAAAAAAAAAA1F
:10168000AAAAAAAAAAAAAAAAAAAAAAAAAAAAAAAABA
:10169000AAAAAAAAAAAAAAAAAAAAAAAAFEFEFEFE5A
:1016A000FEFEFEFEFEFEFEFEFEFEFEFEFEFEFEFE5A
:1016B000FEFEFEFEFEFEFEFEFEFEFEFEFEFEFEFE4A
:1016C000FEFEFEFEFEFEFEAAAAAAAAAAAAAAAAAA2E
:1016D000AAAAAAAAAAAAAAAAAAAAAAAAAAAAAAAA6A
:1016E000AAAAAAAAAAAAAAAAAAAAAAAAAAAAAAAA5A
:1016F000AAAA5555555555555555555555555555F0
:101700005555555555555555555555555555555589
:1017100055555555555555555555555501010101C9
:1017200001010101010101010101010101010101A9
:1017300001010101010101121212121212121223EF
:1017400023232323232323233434343434343434E1
:1017500044444444444444444455555555555555D2
:1017600055666666666666666666777777777777C4
:1017700077778888888888888888889999999999B6
:1017800099999999AAAAAAAAAAAAAAAABBBBBBBBB9
:10179000BBBBBBBBBBCBCBCBCBCBCBCBCBDCDCDCB6
:1017A000DCDCDCDCDCDCEDEDEDEDEDEDEDEDFEFEAD
:1017B000FEFEFEFEFEFEFEEDEDEDEDEDEDEDEDDCF3
:1017C000DCDCDCDCDCDCDCDCCBCBCBCBCBCBCBCBE1
:1017D000BBBBBBBBBBBBBBBBBBAAAAAAAAAAAAAAD0
:1017E000AA999999999999999999888888888888BE
:1017F000888888777777777777777766666666669B
:101800006666666655555555555555554444444488
:10181000444444444434343434343434342323236B
:101820002323232323231212121212121212010154
:1018300001010102030302020E1E0C000004040E4B
:101840001F1F000000081502000000010101030332
:1018500000120C00191B0602040408001008040200
:101860000100000400040004000400771C5F1C4712
:101870001C2F1C171CFF1BE71BCF1BB71B9F1B87B5
:101880001B6F1B571B3F1B271B0F1B3F1BF71ADF31
:101890001AC71AAF1A971A7F1A671A4F1A371A1FE0
:1018A0001A071AEF19D719BF19A719571B7B195B0C
:1018B000193B191B19FB18DB18BB184600ACFF5469
:1018C0000090FF54009EFF70009EFF3600BAFF7F1D
:1018D00000ACFF7F0090FF5400ACFF58009BFF6BF3
:1018E00000A1FF5800A8FF3200DAFF4100A8FF6501
:1018F00000A1FF650081FF3F00E1FF13002C005DA8
:1019000000FCFF2000CBFFA6FF81FF750020009A9E
:10191000FFCBFF6900CBFF5D00CBFFC1FFC1FF7FA5
:1019200000000081FF000000005800000000005887
:1019300000CEFFA8FF0000580000007F0081FF7F5D
:101940000081FF7F0081FF7F0081FF7F0081FF7F9B
:101950000081FF7F0081FF7F0081FF7F007F00818A
:10196000FF81FF7F007F0081FF81FF7F007F00817B
:10197000FF81FF7F007F0081FF81FF5555F5F5B5A1
:10198000B5D5D555AB55599595090949924952494F
:101990004919D56B6B5B5B7777B76D57576F6FDF07
:1019A0007611A9C16F01D10000FF7FFF7FF9FFEF22
:1019B000FFFEFFFF7FFF7FFF7FECFFFBFFFF7F004E
:1019C00000FF7FFF7FF9FFFF7FFEFFF4FFFF7FF641
:1019D000FFFF7FFF7FFF7F0000FF7FFF7FF9FFFF9B
:1019E0007FFEFFFF7F0200FF7FFF7FFBFFFF7F0087
:1019F00000F4FFFF7FF9FFFF7FFF7FFF7F0200FF03
:101A00007FFF7FFBFFFF7F0000F4FFFF7FFF7FFF73
:101A10007FFEFFFF7F0200FF7FFF7FFBFFFF7F0056
:101A200000FF7F0500FF7F0A00FEFFFF7FFF7FF6BC
:101A3000FFFF7FFBFFFF7F0000FF7F0500FF7FEFC1
:101A4000FFFEFFFF7F0200F6FFFF7FFF7FF1FF0039
:101A500000FF7F0500F9FFFF7FFEFFFF7F0200FF11
:101A60007F0700FBFFFF7F0000FF7F0500FF7FFF78
:101A70007FFF7FF4FF0200FF7FECFFFBFFFF7F0093
:101A800000FF7FFF7FFF7FEFFFFEFFFF7F0200F67B
:101A9000FFFF7FFBFFFF7F0000FF7F0500F9FFFFD7
:101AA0007FFEFFFF7F0200FF7FFF7FFF7FF1FF00D0
:101AB00000F4FFFF7FF9FFFF7FFEFFFF7FFF7FFF47
:101AC0007FECFFFBFFFF7F0000FF7F0500F9FFFFBA
:101AD0007FFEFFFF7F0200FF7FECFFFBFFF1FF00B7
:101AE00000FF7F0500FF7FEFFFFEFFFF7F0200FF8B
:101AF0007F0700FBFF0C000000FF7F0500FF7FEF6A
:101B0000FFFEFFFF7F0200FF7FECFFFBFFFF7F0078
:101B100000FF7F0500F9FFFF7FFEFFFF7F0200F659
:101B2000FFFF7FFBFFFF7F0000FF7F05001400FF2A
:101B30007FFEFFFF7F0200FF7F07001600FF7F0090
:101B400000FF7FEAFFF9FFFF7FFEFFFF7F0200FF3C
:101B50007FECFFFBFFFF7F0000FF7F0500FF7F0A98
:101B600000FF7F0F000200FF7F0700FF7F0C0000D7
:101B700000FF7F0500FF7FEFFFFEFFFF7F0200FFFA
:101B80007F0700FF7FF1FF00000F00FF7FFF7FEF67
:101B9000FFFF7FF4FF02001100FF7FFF7FF1FF00D6
:101BA00000F4FFFF7FFF7FEFFFFF7FF4FF0200F6EF
:101BB000FFFF7FFF7FF1FF00000F00FF7FFF7FEF40
:101BC000FFFF7FF4FFFF7FFF7FECFFFF7FF1FF0050
:101BD000000F00FF7FFF7FFF7FFEFFFF7F020011EE
:101BE00000FF7FFF7FFF7F0000F4FFFF7FFF7FEF9D
:101BF000FFFEFFFF7F0200F6FFFF7FFF7FF1FF0088
:101C000000000000000000C0FF0000000000000015
:101C100000C0FF000000000000000000000000C045
:101C2000FF000000000000000000000000000000B5
:101C300000000000000000C0FF00000000000000E5
:101C40000000000000C0FF00000F000500F9FF0ABF
:101C500000FEFFF4FF02001100ECFFFBFF0C000090
:101C6000000F0005001400EFFFFEFFF4FF0200115B
:101C700000ECFFFBFFF1FF0400040004000400057A
:101C80000005000500060006000700070007000821
:101C9000000800090009000A000B000B000C000DF1
:101CA000000E000E000F00100011001200140015AD
:101CB000001600170019001A001C001E001F00214A
:101CC000002300250028002A002D002F00320035B7
:101CD0000039003C004000430047004C00500055D4
:101CE000005A00600065006C007200790080008876
:101CF0000090009900A200AC00B600C100CC00D951
:101D000000E600F3000201110122013301450159EF
:101D1000016E0184019B01B301CD01E90106022599
:101D200002460269028E02B502DF020B0339036B21
:101D3000039F03D603110450049204D804220570B3
:101D400005C4051C067906DD064607B5072B08A85D
:101D5000082D09B9094E0AEC0A930B450C010DC870
:101D60000D9B0E7A0F671063116D128713B214EF7B
:101D7000153F17A3181C1A0029F628F028EB28E3B2
:101D800028DA28D028C728C028B628B128A8289F34
:101D900028982892288A2882287A2875286E28640C
:101DA000285D2851284D2849283E2837283E282ECE
:101DB0002827282028192812280B280028F827F37C
:101DC00027E927E127D927D427D027CB27C527C143
:101DD00027BC27B727AE27A5279C27972792278DB3
:101DE00027862781277C2777276B2766275C275044
:101DF0002744273A27362731272C27272723271E32
:101E0000271927142710270D2708270427FD26F454
:101E100026EF26EA26E326DC26D526CE26C526BCD6
:101E200026B326AA26A0269C26992693268F2689A5
:101E30002683267E2677267126692663265D265709
:101E40002652264B2645263F2637262F2627261E96
:101E50002619260F260B2607260326FE25EF26F930
:101E600025F425EF25EA25E525E025DB25D625D136
:101E700025CC25C725C225BD25B825B3251027AEFD
:101E800025A625A2259D25982593258E258925847F
:101E9000257F257A2574256D25682562255E2559BF
:101EA0002554254F254A25452540253B25362531F6
:101EB000252C25272522251D25192514250F250A22
:101EC0002505250025FB24F624F124EC24E724E253
:101ED00024DD24D924D524D124CE24CB24C624C166
:101EE00024BC24B724B224AD24A924A424EC24A027
:101EF000249B24962491248C24872482247D243BB3
:101F000025792473246D24672461245B2455244F90
:101F100024482441243A2433242C2425241925142C
:101F2000251E241724102409240324F624F12489CF
:101F300026FC23F623F123EC23E823E423DC23D43B
:101F400023CE23C823C023B823A924A4248926B1DF
:101F5000239B24AB23A1238C249828922882284FEA
:101F60002479249E239B23982393238B2383237AF2
:101F7000237123E12710276D23682363235F235BED
:101F800023A2255823552351234D23482343233986
:101F90002332232C23292324231C231523FC230F42
:101FA000230B2307230323FF22FB22F722F322EF35
:101FB00022EB22E622E122DC22D722D222CD22C845
:101FC00022BE22B4222C23AF22AA22A522A0229B29
:101FD00022962291228C22872282227D22782273CD
:101FE000226E22692264225F22592251224C224D04
:101FF0002346223F22322225221F221B221222099F
:10200000220022F421EE21E821DC21D521CA21BCC5
:1020100021AF21A521A0219A219121892183217F0E
:102020002179217421682161215B2154214C2144B3
:10203000213E21382132212A2124211F2112210A67
:10204000210021F620EF20E820DB20CF20C320B89C
:1020500020AF20A4209C2094208D20812074206912
:102060002063207261736961006A6F6765736877C6
:10207000617269006B61757368696B20746F646964
:10208000006368616E6472616465657000622E74DD
:102090006F64690062616972616769006D2E6B61CE
:1020A000756E73006E61746268616972617600704A
:1020B000612E206B616669006B616D657368776185
:1020C00072690067616E6765736877617269007233
:1020D000616E676573687761726900706172616DC6
:1020E00065736877617269006D69276D616C006B5B
:1020F00068616D616A007261676573687265650029
:1021000062616765736872656500646172626172BD
:1021100069006268696D70616C6173726565006BFE
:102120006166690079616D616E0062696C617761F9
:102130006C007075727669007368726565006D6118
:102140007277610067756E616B72690062686169C0
:1021500072617600312F3420656100312F342065A3
:1021600000312F34206562007079746861676F7286
:1021700065616E006A75737400657175616C005FEE
:102180005F5F004D554C54490050524F4752414DEE
:102190000053455155454E43450050415443480076
:1021A000696E69740072616E646F6D697A65007042
:1021B0007420582070726F6772616D0070742058BF
:1021C0002073657175656E636500707420582070AA
:1021D000617463680073797374656D00706572660D
:1021E0006F726D616E636500636C6F636B006D751C
:1021F0006C7469006172706567676961746F720001
:10220000656E76656C6F70650066696C74657220CA
:10221000320066696C7465722031006C666F006D07
:1022200069786572006F7363696C6C61746F72209A
:1022300032006F7363696C6C61746F722031006D72
:102240006F6E6B65790068756D616E00707573688F
:102250000073687566666C65007377696E67006306
:102260006E707300636E702E00636E2E7300636E6B
:102270002E2E00632E707300632E702E00632E2EA0
:102280007300632E2E2E002E6E7073002E6E702E35
:10229000002E6E2E73002E6E2E2E002E2E707300CA
:1022A0002E2E702E002E2E2E73002E2E2E2E006619
:1022B000756C6C00636F6E74726F6C6C720073651A
:1022C0007175656E636572007468727500312F39BF
:1022D0003600312F343800312F333200312F323471
:1022E00000312F313600312F313200312F3800319B
:1022F0002F3600312F3400312F3300332F38003187
:102300002F3200322F3300332F3400312F3100634E
:10231000686F726400706C61796564007570266422
:102320006F776E00646F776E007570006368616927
:102330006E006379636C696300327820756E69732F
:102340006F6E00706F6C79006D6F6E6F006C6167FF
:102350000071747A003C3D003E3D006D696E006D79
:102360006178006174746E0070726F6400616464FF
:1023700000617270656767696F00737465702073C0
:102380006571006C666F7E656E7600656E767E6C3C
:10239000666F0066726565006870006270006C7040
:1023A000006672657175656E637900637275736836
:1023B000007375626F7363007669627261746F0097
:1023C0006F736320312B32006F73632032006F73A1
:1023D00063203100706172616D2032007061726142
:1023E0006D2031003D2034003D2038003D20313645
:1023F000003D203332003D203235360072616E647C
:102400006F6D00706564616C00776865656C3200A3
:102410006D776865656C0062656E64657200616603
:1024200074746368007365712E2032007365712EB9
:102430002031006D6F642E2034006D6F642E2033C8
:10244000006D6F642E2032006D6F642E2031006CA1
:10245000666F2034006C666F2033006C666F20322C
:10246000006C666F203100656E76203300656E76F5
:10247000203200656E762031007663610072656CF3
:10248000650064656361006174746B007265736FED
:10249000006672657100637273680066757A7A000F
:1024A00073756200786D6F64006D6978007669629B
:1024B000720003312B32006F736332006F7363312C
:1024C0000070726D320070726D31003D34003D3825
:1024D000003D3136003D3332003D3634003D31326F
:1024E00038003D3235360072616E64006E6F69737C
:1024F0000067617465006E6F7465007064616C00E4
:1025000077686C32006D77686C0062656E6400619C
:102510006674720076656C6F00617270007365712D
:10252000320073657131006D6F6434006D6F643318
:10253000006D6F6432006D6F6431006C666F340043
:102540006C666F33006C666F32006C666F310065CD
:102550006E763300656E763200656E763100706F90
:1025600070006D6574616C00626C6F7700676C69F8
:1025700074636800636C69636B0070756C3200741F
:1025800072693200737175320070756C310074724B
:1025900069310073717531006269747300666F6C24
:1025A0006400786F720072696E676D6F6400737992
:1025B0006E630073747032007374703100727371E3
:1025C000720072736177006C737172006C73617763
:1025D0000073706B320073706B3100626174320093
:1025E0006261743100677267320067726731006838
:1025F000726D350068726D330068726D3200726101
:102600006D700073266800737172007472690077D0
:1026100061767175656E63650062656C6C006D65F1
:1026200074616C6C69630064726F6E652032006463
:10263000726F6E652031006469676974616C007740
:1026400061766573006F7267616E00657069616EB7
:102650006F00736C61700076696265730063656C0E
:102660006C6F00626F7765640074616D7075726184
:102670000063686F69720066656D616C65006D610D
:102680006C6500766F77656C006E6F6973650070BE
:10269000776D00386269747300666D007061640064
:1026A0007A747269616E676C650068707A70756CB7
:1026B00073650062707A70756C736500706B7A7008
:1026C000756C7365006C707A70756C7365006870FA
:1026D0007A7361770062707A73617700706B7A73D6
:1026E0006177006C707A736177007A736177007339
:1026F000696E6500747269616E676C6500737175EF
:1027000061726500736177006E6F6E65006F6E00B9
:102710006F6666006F63747600612F73710073706B
:102720007264006F6374007372636500616D6E7430
:10273000006F6D6E6900657874006F757470206D40
:102740006F646500696E70742066696C74657200F0
:102750007377617020636F6C6F7273006361726472
:10276000206C656473006C656473006175746F2020
:102770006261636B75700068656C7000736E617088
:10278000006D6964690067726F6F7665006C656ED5
:1027900070006C656E32006C656E3100706174742F
:1027A000206C656E0073657132206C656E00736518
:1027B0007131206C656E00677269640068696768D2
:1027C000006C6F77006C61746368006C7463680000
:1027D00062706D0070617274006368616E6E656C2A
:1027E000007061747465726E006469726563746907
:1027F0006F6E0072616761006172702F73657100A6
:10280000706F7274616D656E746F006C6567617472
:102810006F00737072656164006F63746176650048
:10282000766F6C756D65006D6F6469662E006D6FF7
:10283000646966696572006D6F64756C2E006D6FFA
:1028400064756C6174696F6E00696E3200696E3117
:102850000064657374696E6174696F6E00736F757F
:1028600072636500766F696365206C666F006C66E5
:102870006F2F6567007261746500747269676765C0
:10288000720072656C65617365007375737461695C
:102890006E0064656361790061747461636B006CE0
:1028A000666F327E76636600656E76327E7663662C
:1028B000006D6F6465007265736F6E616E636500B5
:1028C000616D6F756E74006F70657261746F720008
:1028D00063726F73736D6F642E00737562206F7314
:1028E000632E006F7363206D69780074756E6500E8
:1028F00072616E676500706172616D65746572000A
:1029000077617665666F726D002F42414E4B2F00E6
:102910002F484953544F52592F002F434C4950428E
:1029200052442F434C495042524400F000210200CF
:10293000040000010001010100000000000000008F
:10294000000003010402050002030506090B0D0F38
:1029500000C72B00010203040506070100F001C7B0
:102960002B080D0C0B090A0E0F00000F02C72B10CD
:1029700011FF121617FFFF0201F003C72B181E1FCD
:102980001D191A1B1C0402F004C72BFF2021FFFF96
:10299000FFFFFF03020F05C72B222324252627282C
:1029A000290503F006C72B2A392F302B2C2D2E0793
:1029B00004F007C72B313233343536373808040F6B
:1029C00008192C00000000000000000604FF097F29
:1029D0002C3A3B3C3DFFFFFFFF0A05F00AC72B3EA8
:1029E0003F4041FFFFFFFF09050F0BDD2BF0F1F228
:1029F000F3F4F5F6F70C06F00C8B2A00000000004B
:102A00000000000B060F0D332B000000000000003B
:102A1000000D07F00E5F2C00000000000000000D0C
:102A200008F00FC72B424347484445FF460F08F0C4
:102A300010B12B00000000000000001008F07965C4
:102A400073207C206E6F005D405A4E6040AA407F2C
:102A500040BC400000B140D8408E40734E6B6E6F5A
:102A60006220787C70617274207A7C007065726676
:102A70006F726D616E636520706167652063757349
:102A8000746F6D697A6174696F6E00B7415A4ECF89
:102A9000415D4E22427F4E00006B4E7542744E7374
:102AA0004E5344206361726420492F4F2065727237
:102AB0006F7200736176657C63616E63656C002084
:102AC0007C202020696E69747C73656E647C736100
:102AD00076657C76657273696F6E7320206D6F7298
:102AE000657C6578697400707265667C7E696E6964
:102AF0007C61626F757420202020202020202020FF
:102B000020202020206D6F72657C65786974006DCF
:102B1000756C7469007573652063757272656E7487
:102B2000206D756C74692061732064656661756CD5
:102B3000743F00AC465A4E2B43FB42694EA24600FE
:102B4000006B4EA6450A435A4428656D7074792976
:102B50002020202020202000006578697400696E04
:102B60007374616C6C007570677261646500757078
:102B7000677261646500706F7274203120646576DD
:102B8000696365203F00616D62696B61002F564F7C
:102B9000494345242E42494E002F564F4943452470
:102BA0002E42494E002F414D42494B412E42494E43
:102BB0000075475A4E7A475D4E694E094700006BD3
:102BC0004E9F47F946734E11490349B0485D4E1C6C
:102BD000497F4E00006B4E76492A48734E114903D7
:102BE00049C94AEA4A1C49824A00006B4E76498527
:102BF0004A734E07206E6F7465200776656C6F63AD
:102C00006974792007737465707365712031077377
:102C1000746570736571203200BB4CC44CD94B2273
:102C20004BD04C7F4E974B6B4E394D744E734E6369
:102C30006F70797C737761707C706173746520202C
:102C4000202020203C3C207C203E3E207C6B656583
:102C5000707C657869740076657273696F6E003098
:102C6000505A4E5B4E5D4E694ED74F00006B4E582A
:102C70004F4A4F734E766F69636563617264007784
:102C800051145172508C5034517F4E21516B4EC9AA
:102C9000502A48734E00491DB91DA41F5022992F78
:102CA0000138F33D39409341D742D54606485E4A44
:102CB000FE4A2D4E264F4E508051293811241FBEFA
:102CC000CFEFD0E1DEBFCDBF11E0A0E0B1E0E2E2A6
:102CD000F3ED02C005900D92A836B107D9F720E1B7
:102CE000A8E6B1E001C01D92A231B207E1F716E1FA
:102CF000CDE5D6E104C02197FE010E94E268CB3405
:102D0000D107C9F70E94101C0C94F4670C940000C2
:102D10000F931F93CF93DF938C01D62FC72F462F8E
:102D2000572F60E070E00E942E68009719F0801B1A
:102D3000910B02C08D2F9C2FDF91CF911F910F918E
:102D40000895EF92FF920F931F93CF93DF93EC01BF
:102D5000F62EE42E062F10E0B8010E948816482FA8
:102D6000F816C9F0F8013297EC0FFD1F20E030E0B3
:102D70002F1588F4241750F4DC01BB27A21BB30BDA
:102D8000AC0FBD1F11975C91518301C0E1822F5F91
:102D90003F4F3197EDCFCDB7DEB7E6E00C94396900
:102DA00040E20E94A11608951F93CF93DF93EC0198
:102DB000162F70E00E948816811738F4FE01E80F84
:102DC000F11D90E290838F5FF7CFDF91CF911F913C
:102DD00008952FB7F8946091690170916A0180910C
:102DE0006B0190916C012FBF0895FC011082089532
:102DF000FC012081222321F001960E94EA5F0895C0
:102E000084E1089501960E94DE5F0895FC0120810F
:102E100021110E9402170895AF92BF92DF92EF92A4
:102E2000FF920F931F93CF93DF93EC017B01D42E7E
:102E300059018881882319F0CE010E9402178E0162
:102E40000F5F1F4F4D2DB701C8010E94CB5B813032
:102E500059F4A114B10441F0C5010E9456174D2D3B
:102E6000B701C8010E94CB5B91E0811190E098838B
:102E7000DF91CF911F910F91FF90EF90DF90BF9066
:102E8000AF900895DC01EC91EE2321F001960E94B1
:102E9000F05C089584E10895DC01EC91EE2321F0CB
:102EA00001960E94165E089584E10895CF92DF9204
:102EB000EF92FF927C016DE671E080E00E94B55BCD
:102EC0000E94E9169B01AC012E0D3F1D411D511DB5
:102ED00069017A010E94E9166C157D058E059F0532
:102EE00038F480E00E942E6580FDF4CF80E001C0C0
:102EF00081E0FF90EF90DF90CF9008950E94806175
:102F00000895EF92FF921F93CF93DF937C01EC0122
:102F100021961881112359F01F32D1F71882C70169
:102F20000E940D621883982F977F91F301C080E073
:102F3000DF91CF911F91FF90EF9008950E94416320
:102F40000895882359F070E06F5F7F4F282F30E09D
:102F500081E06217730719F080E0089581E0089519
:102F60000F931F93CF938C01C42FFC0180810E948B
:102F7000A117882399F0F80191812281291730F057
:102F8000C91748F081E02C1738F405C081E02C17F0
:102F900018F4C91708F480E0817001C080E0CF9177
:102FA0001F910F910895EF92FF920F931F93CF936C
:102FB000DF93E82EF62ECBE4DDE009E215E04F2D9D
:102FC0006E2DCE010E94B017882321F06F2DC8010D
:102FD0000E94C72B2496055A1E4F8DE0C336D80792
:102FE00071F7CDB7DEB7E6E00C9439698091150131
:102FF000833039F0E09116019E2F990FE90FE80F09
:1030000001C0E2E1F0E0EE0FFF1FE753F04F8091C7
:103010001801909119019827892798279183808317
:103020000895AF92BF92DF92EF92FF920F931F939A
:10303000CF93DF93D82E162F042F82E080934A047B
:1030400010924C0410924B04E0918D0FF0918E0F72
:10305000309729F0642F812F0995811125C0809127
:103060001E05811102C00E94B11ECBE4DDE039E2F1
:10307000E32E35E0F32E43E6A42E4DE0B42E412F8F
:103080006D2DCE010E94B017882329F0402F612FAB
:10309000C7010E94EE2C249625EAE21A2EEFF20ACE
:1030A000AC16BD0661F718C023E0822F8295807FA1
:1030B00024E0829FC00111248F6390915504E92F71
:1030C000F0E0EE0FFF1FE95AFB4F80838FEF818303
:1030D0009F5F977090935504DF91CF911F910F914F
:1030E000FF90EF90DF90BF90AF900895CF93C82FDF
:1030F0008091180E8350823028F08C2F0E94F83374
:10310000CF91089540E060E070E08C2F0E948A1D0E
:10311000F4CF78941F920F920FB60F9211242F9331
:103120003F934F935F936F937F938F939F93AF934F
:10313000BF93EF93FF938091C00087FF15C09091DC
:10314000C60080919D0320919C038150821B8F714A
:1031500059F080919C03E82FF0E0E256FC4F9083F9
:103160008F5F8F7180939C038091BE039091BF030A
:10317000891B877029F08091C00085FF0CC043C077
:103180008091C8039091C903891B8F7721F08091AA
:10319000C00085FD44C00E942E3D80919B03982F66
:1031A000937031F59091680126E6290F2D3718F4B8
:1031B000209368011DC09751909368012091690187
:1031C00030916A012F5F3F4F30936A01209369016C
:1031D0002091690130916A01232B51F420916B01F8
:1031E00030916C012F5F3F4F30936C0120936B0146
:1031F0008F5F803319F080939B031FC010929B0355
:103200000E94DB671AC08091BF03E82FF0E0E05412
:10321000FC4F90818F5F87708093BF030BC08091BC
:10322000C903E82FF0E0E653FC4F90818F5F8F7762
:103230008093C9039093C600AECFFF91EF91BF91E9
:10324000AF919F918F917F916F915F914F913F913E
:103250002F910F900FBE0F901F9018957894109299
:10326000C1001092C90084B714BE809160008861CB
:103270008093600010926000389A80E00E943E388F
:103280008091C0008D7F8093C0001092C50087E2BE
:103290008093C4008091C10088608093C1008091B8
:1032A000C10080618093C10080918100887F82602D
:1032B00080938100809180008C7F8160809380006A
:1032C0008091B100887F81608093B1008091B000CF
:1032D0008C7F81608093B0008091700081608093CA
:1032E00070000E941B3C80916F00816080936F0092
:1032F0000E94983F0E94084080911C0E811102C0DC
:103300000E94F03F80915404811103C081E00E942B
:103310003E3881E090915404911180E00E948E1E0D
:103320000E94053008952C9A0895279A259A269888
:10333000249A0E949319249A0E9493198DB58E7F26
:103340008DBD8DB581608DBD81E58CBD0895AF9239
:10335000BF92DF92EF92FF920F931F93CF93DF9371
:10336000CDB7DEB72E970FB6F894DEBF0FBECDBF38
:103370009091170E91FD9AC0162FD82E92E0E92E4B
:103380009091FB049A3108F046C08BE4A82E8DE0A2
:10339000B82EF12C00E06D2DF50180810E94A1175F
:1033A000882389F182E08093150110921B0110920D
:1033B0001A01F09216018091FB048093180110937A
:1033C0001901002311F001E01EC087E0E5E1F1E002
:1033D000DE01189601900D928A95E1F7CE010896CC
:1033E0000E94AD31882321F0CE0108960E9401375A
:1033F00041E0BE01685F7F4F80E00E94AA348111E6
:10340000E2CF0E94F617F394F4E0AF0EB11C86E011
:10341000F812C1CF2DC083E08093150110921B01DB
:1034200010921A01109216019A519093180110935C
:10343000190187E0E5E1F1E0DE01119601900D92BE
:103440008A95E1F7CE0101960E94AD31882321F0E3
:10345000CE0101960E94013741E0BE016F5F7F4FB0
:1034600080E00E94AA34811109C000E00E94F61792
:10347000011104C081E08093C80F18C00E94103F62
:1034800095B1976095B92E9A80E58CBD81E08DBD90
:103490008093BE0F8EEE92E00E9456172E980E94E7
:1034A00095191092BE0FEA94E1106ACF2E960FB6CE
:1034B000F894DEBF0FBECDBFDF91CF911F910F916A
:1034C000FF90EF90DF90BF90AF900895A0E0B0E044
:1034D000ECE6FAE10C9419698C01862FD62FD07F87
:1034E000C62FCF70603F99F0673F89F0F8014481A3
:1034F000B8016F5F7F4F9091180E943031F0933088
:1035000031F4D03869F1D03911F10E948A1DD03BD5
:1035100009F44FC040F4D039D1F0D03A39F1D03865
:1035200009F079C11DC0D03D09F4F7C048F4D03C82
:1035300009F071C1F80161818C2F0E94A7196BC13C
:10354000D03E09F40BC1D03F09F43AC164C1F8017F
:103550004281442329F061818C2F0E9411185BC1A4
:10356000F80161818C2F0E94D31755C1F801B280F8
:10357000D1810BE41DE0A9E2EA2EA5E0FA2EB3E624
:10358000CB2EBDE0DB2E4D2F6C2FC8010E94B01753
:10359000882329F04B2D6D2FC7010E94AC250C5FAD
:1035A0001F4FF5EAEF1AFEEFFF0AC016D10659F7D2
:1035B00032C1F801D1818D2F90E0FC01E857F1096B
:1035C000E830F10508F07BC0E25CFF4F0C94E26844
:1035D0000BE41DE0F9E2EF2EF5E0FF2E6C2FF80171
:1035E00080810E94A117882319F0C7010E94072734
:1035F0000C5F1F4FF5EAEF1AFEEFFF0A8DE003366E
:10360000180761F708C10BE41DE0E9E2EE2EE5E0E2
:10361000FE2E6C2FF80180810E94A117882319F0DB
:10362000C7010E949A230C5F1F4FF5EAEF1AFEEFC5
:10363000FF0A8DE00336180761F7EDC00BE41DE0CB
:1036400079E2E72E75E0F72E6C2FF80180810E9459
:10365000A117882319F0C7010E94CF280C5F1F4FC4
:10366000F5EAEF1AFEEFFF0A8DE00336180761F75F
:10367000D2C00BE41DE06C2FF80180810E94A117DD
:10368000882321F081E08C0FF80180830C5F1F4FAD
:10369000FDE003361F0779F7BEC00BE41DE06C2F79
:1036A000F80180810E94A117882311F0F80110828F
:1036B0000C5F1F4FFDE003361F0789F7ACC0F80110
:1036C000D280D11103C0D092FB04A5C084E08093C6
:1036D0004A0410924C0410924B040BE41DE059E292
:1036E000E52E55E0F52E63E6A62E6DE0B62E6C2F86
:1036F000F80180810E94A117882329F04D2D6D2F9C
:10370000C7010E94162C0C5F1F4FF5EAEF1AFEEF5F
:10371000FF0AA016B10659F77EC0F801D1810BE46B
:103720001DE039E2E32E35E0F32E43E6C42E4DE0F2
:10373000D42E6C2FF80180810E94A117882321F0DC
:103740006D2FC7010E94A6250C5F1F4FF5EAEF1AE7
:10375000FEEFFF0AC016D10661F75DC0F801828155
:10376000018110E0F0E88F9F000D111D112483E00E
:1037700080934A0410924C0410924B048BE4E82E80
:103780008DE0F82E99E2C92E95E0D92E23E6A22EDF
:103790002DE0B22E6C2FF70180810E94A1178823A3
:1037A00021F0B801C6010E949C25F4E0EF0EF11C47
:1037B00085EAC81A8EEFD80AAE14BF0459F72BC099
:1037C000CA30D1F028F4CC2359F0C83071F023C0AE
:1037D000CC30A9F088F0CF30F1F4C9E2D5E012C0C6
:1037E000F80181810E94761816C08091630D88329D
:1037F00090F40E94F21E0FC00E94B11E0CC00E94E5
:10380000D91E09C0CE010E94B823C55ADE4FFDE083
:10381000CB34DF07B9F7CDB7DEB7EAE00C943569F2
:103820000E942E19809156048093550480919C0328
:1038300090919D03891B8F7109F48AC080919D032B
:10384000E82FF0E0E256FC4F60818F5F8F7180932C
:103850009D038091180E81110BC08091C803E82F41
:10386000F0E0E653FC4F60838F5F8F778093C8034F
:10387000683F28F083EF94E00E94661AD7CF67FF75
:1038800044C01092F70481E08093F804862F807F73
:10389000803A61F028F4803849F08039C9F406C0D4
:1038A000803E21F0803F31F0803B91F482E08093B4
:1038B000F80428C0862F8F709FEF980F923020F465
:1038C00082E08093F80404C0843010F01092F80471
:1038D000673F09F042C08091F304803F81F487EF95
:1038E0000E9476188091F00D843011F48CE201C0B2
:1038F00084E280934A0410924C0410924B0410927C
:10390000F3040DC06093F3040AC0E091F70481E072
:103910008E0F8093F704F0E0ED50FB4F61839091A0
:10392000F7048091F804981708F480CF6091F304AD
:1039300083EF94E00E94661A1092F7048091F304DA
:10394000813F08F473CF1092F8041092F3046ECF05
:103950000E94531F0E94783A69CF603F99F66093A6
:10396000F30480EF0E947618DACF2C988EBD0DB448
:1039700007FEFDCF0E94931908959091F90481E00C
:1039800098279093F9048091A9042091AA04821B9E
:103990008F7111F091110CC08091670490916804AF
:1039A000891B8F7171F18091F9048823B1F008951A
:1039B0009091AA04E92FF0E0EE0FFF1FE555FB4FB1
:1039C000208181819F5F9F719093AA0495B1987F18
:1039D000922B95B90E94B51CDFCF90916804E92F16
:1039E000F0E0EE0FFF1FE759FB4F208181819F5FC1
:1039F0009F719093680495B1987F922B95B90E941E
:103A0000B51C08951F920F920FB60F9211242F9399
:103A10003F934F935F936F937F938F939F93AF9356
:103A2000BF93EF93FF93809127059091280501960E
:103A30009093280580932705209125053091260530
:103A40002F5F3F4F309326052093250520912105B8
:103A5000309122058217930748F0809123058F5FEC
:103A60008093230510922805109227050E94BD1C03
:103A7000FF91EF91BF91AF919F918F917F916F9146
:103A80005F914F913F912F910F900FBE0F901F901C
:103A90001895E3EFF4E01082148215822091EB0474
:103AA0003091EC044091ED045091EE046091EF04EC
:103AB0007091F0048091F1049091F204A1E00E94D1
:103AC00048692093EB043093EC044093ED04509349
:103AD000EE046093EF047093F0048093F1049093EC
:103AE000F20408959091BE03E92FF0E0E054FC4FFA
:103AF00080839F5F97709093BE0308959091C80351
:103B0000E92FF0E0E653FC4F80839F5F9F7790930F
:103B1000C80308951F93CF93DF93EB01142F0E94E6
:103B20007E1D112341F088810E947E1D113019F005
:103B300089810E947E1DDF91CF911F910895CF93BF
:103B4000DF93D62FC42F0E947E1D8D2F0E947E1DD5
:103B50008C2F0E947E1DDF91CF9108959091C90313
:103B60002091C8039150921B9F77C1F30E947E1D44
:103B700008952091EB043091EC044091ED045091B4
:103B8000EE046091EF047091F0048091F104909143
:103B9000F204A1E00E9448692093EB043093EC0406
:103BA0004093ED045093EE046093EF047093F0049F
:103BB0008093F1049093F2040895382FEBE4FDE034
:103BC00020E08FEF321729F093819823938390950B
:103BD00089232F5F34962630A9F708950F931F93FA
:103BE000CF93DF93CBE4DDE009E215E06B81C80100
:103BF0000E9471272496055A1E4F8DE0C336D807C0
:103C0000A9F7DF91CF911F910F910895A0E0B0E047
:103C1000ECE0FEE10C9417692091630D022F10E097
:103C200020E030E0D901C801880F991FAA1FBB1FEF
:103C3000BC01CD01645274408A4F9F4FA901980185
:103C4000E2E0220F331F441F551FEA95D1F70E946F
:103C5000C3687901C091640DD0E0CC0FDD1FC15560
:103C6000D74E8090650D912CA12CB12CADEFCA2EB2
:103C7000A4E0DA2E00E010E0FE0185919491FC01B1
:103C8000E00FF11F25913491D7010E94E8689B0154
:103C9000AC01C501B4010E945D688E0D9F1DF60147
:103CA000819391936F010E5F1F4F0032110521F731
:103CB0008091FD049091FE0490932205809321054C
:103CC000CDB7DEB7ECE00C9433690E94061E8FEF8F
:103CD0000E94DD1D0E94EE1D81E08093FC0408958A
:103CE0001F93CF93DF93182F48E350E06AED70E005
:103CF0008BE49DE00E940468C9E2D5E0612FCE010B
:103D00000E944D28C55ADE4F8DE0CB34D807B1F75D
:103D10000E94651EDF91CF911F9108951F93CF934D
:103D2000DF93182FC9E2D5E0CE010E94F426C55AD0
:103D3000DE4F8DE0CB34D807B9F7112331F080E0A6
:103D40000E94701E0E943C3006C00E94953088235D
:103D5000B1F30E94651E10921E05DF91CF911F9155
:103D60000895CF93DF938091180E813019F48AEF74
:103D70000E94721D1092200510921F0510921D05C1
:103D8000C9E2D5E0CE010E94C624C55ADE4F8DE0BF
:103D9000CB34D807B9F78091FD049091FE0490933D
:103DA00022058093210581E080931E05DF91CF914C
:103DB0000895CF93DF938091180E813019F48CEF22
:103DC0000E94721DC9E2D5E0CE010E94D828C55AD2
:103DD000DE4F8DE0CB34D807B9F710921E05DF9186
:103DE000CF9108951F93CF93DF93809120058F5F2C
:103DF000863019F08093200519C01092200580911B
:103E00001F058F5F803119F080931F0502C010924B
:103E10001F05E0911F05F0E0EE0FFF1FE350FB4F81
:103E200080819181909322058093210580911E05C8
:103E30008823A9F18091180E813019F488EF0E942F
:103E4000721DC9E2D5E011E0CE010E942D2FFE01C6
:103E5000E151FF4F8081811110E0C55ADE4F8DE0A6
:103E6000CB34D80789F78091630D8832C0F01123D5
:103E700031F080911D058F5F80931D0502C0109267
:103E80001D052091660D38E1239FC001112420916A
:103E90001D0530E08217930710F40E94D91EDF91B0
:103EA000CF911F910895CF93DF9380912505909135
:103EB000260588329105C8F0209124052F5F2093B4
:103EC000240588979093260580932505C9E2D5E0BF
:103ED000609124056170CE010E94D723C55ADE4F40
:103EE0008DE0CB34D807A1F7E0CF8091630D883205
:103EF00060F080912305882351F00E94F21E80918A
:103F00002305815080932305F4CF10922305DF9180
:103F1000CF910895E82FF0E0E55BF24F908196177E
:103F200091F060839091FC0492609093FC0488313E
:103F300030F48370833039F40E94651E08958B310C
:103F400010F40E94061E08952091EB043091EC04B9
:103F50004091ED045091EE046091EF047091F004F3
:103F60008091F1049091F204A1E00E9448692093AD
:103F7000EB043093EC044093ED045093EE04609313
:103F8000EF047093F0048093F1049093F204089589
:103F9000CF93DF93262FEA01009731F4FA0131968F
:103FA00080E3888321502AC097FF07C03DE2388311
:103FB00021509195819591092196E0E031E03E0FE5
:103FC000F0E0ED57F24F6AE070E00E948D68808368
:103FD000CB01E32F009791F7AE01EE2359F0E150AA
:103FE000AE2FB0E0AD57B24F8C91805DDA018D936A
:103FF000AD01F3CFFE01E30FF11D231B2111108250
:10400000DF91CF910895FC018281882379F093811B
:1040100024812F5F291B660F269F612D1124690FB4
:10402000843121F46F3E08F060EF6E7F862F089593
:104030000F931F93CF938C01C62F642F0E940320F0
:10404000F8019281933041F46C2FCC0F770B681BF1
:10405000710987FD739504C06C2F70E0681B7109AE
:10406000F80124818381281B30E085E03595279570
:104070008A95E1F777FF03C071956195710981E039
:10408000261737070CF480E0CF911F910F91089508
:10409000FC0182819381833031F469175CF0848163
:1040A00086174CF405C0691728F08481861718F428
:1040B000682F01C0692F862F0895FC018281042E8C
:1040C000000C550B2381833079F4460F511D67FD99
:1040D0005A95022E000C330B421753078CF0848143
:1040E000082E000C990B08C0460F511D30E04217F6
:1040F000530734F0848190E0841795070CF0642F07
:10410000862F0895FC016481838191E0960F981BAE
:1041100040910101509102019A012170332731959C
:10412000219531092227347B569547952427352739
:104130003093020120930101432F911104C06817AD
:1041400039F0832F0895491710F0491BFCCF840FD5
:104150000895DB0190E08C3018F09F5F8C50FBCF0E
:10416000880FE82FF0E0EB51F94FE491EC938F5F6B
:10417000E82FF0E0EB51F94FE4911196EC93119791
:10418000E92FF0E0E752F94FE4911296EC93129781
:1041900013961C920895CF938E3FA1F09091040145
:1041A000891799F0C82F8FE0C89FB00111246E5E67
:1041B0007E4F4FE050E08AE89DE00E940468C09383
:1041C000040103C085E091E002C08AE89DE0CF9140
:1041D0000895E82FF0E0E75AF94F84910895E82F09
:1041E000F0E0E75AFA4F849108950F93FC01322FC3
:1041F000202F86819181489F900D1124892F408125
:10420000423078F44BE551E0649FF001659FF00D7A
:104210001124432F692FCF01875D9A4F0E949C275D
:1042200010C0423021F4632F0E948A1F0AC090E020
:10423000FC01433019F4E95EF14F02C0EA54F04F3B
:1042400030830F910895FC0186819181489F900DE4
:1042500011242081892F90E0223068F42BE531E091
:10426000629FF001639FF00D11248E0F9F1FFC01D0
:10427000E75DFA4F0DC0FC01223019F4E55BF24F07
:1042800007C0233019F4E95EF14F02C0EA54F04F41
:10429000808108959B01880F991FFC01E958F24E17
:1042A0006591749150E0C9010E941F680895A0E0D3
:1042B000B0E0EDE5F1E20C9419697C01C62F8A01AA
:1042C000D22FFC018281E82FF0E0EE0FFF1FE250B9
:1042D000F94FC590D49056018D30F1F040F48A30FA
:1042E00089F08C3099F0823051F5CF5F3DC0843138
:1042F000C9F08931F1F0833111F5B8018C2F0E949A
:10430000A9201DC06F3080F1CF5024C0263060F14D
:1043100036ECA32EB12C16C0263030F123EEA22E9F
:10432000B12C10C0683200F59FE3A92EB12CC0E07B
:1043300009C0611119C080E4A82EB12C03C0C114BA
:10434000D10441F04D2FB801C5018C0F911D0E9481
:104350004A2115C0F7018281833189F0833039F415
:104360008C2FCC0F990B05C0C114D10459F78C2F99
:1043700090E0DD2321F0A8016D2F0E94C81F6D2F52
:10438000C8010E94D016CDB7DEB7EAE00C943569BB
:104390000F931F93CF938B01C42FFC01473018F468
:1043A0008185928502C0838594854C2FB8010E9437
:1043B0004A216C2FC8010E94D416CF911F910F91F2
:1043C0000895A0E0B0E0E7EEF1E20C941C69EC0186
:1043D000D62E7A01122F422FB7010E94C8216FEF0B
:1043E000610F2FEF200F210F261BF701E60FF11DA4
:1043F0008081803211F46150F4CF6F5F70E0F7017B
:10440000E60FF71F80E28083AB014F5F5F4F4E0DD9
:104410005F1D6D2DCE010E945721CDB7DEB7E7E0BD
:104420000C943869A4E0B0E0E8E1F2E20C941B6976
:104430006C01142F79016F3F71F080E7F9018083DF
:1044400084E7818380E282836F5C63838483055089
:10445000C90105967C01402FB701F6018585968537
:104460000E944A21F60187818F3F91F080E2898383
:104470001C82812F90E0AE014E5F5F4F62E001969B
:104480000E94C81FBE016F5F7F4FC7010E944B682B
:10449000602FC7010E94D4162496E8E00C94376977
:1044A0002091EB043091EC044091ED045091EE0426
:1044B0006091EF047091F0048091F1049091F20406
:1044C000A1E00E9448692093EB043093EC044093F0
:1044D000ED045093EE046093EF047093F004809326
:1044E000F1049093F20408952091010130910201AA
:1044F000C901817099279195819591098827947BAD
:104500003695279582279327909302018093010186
:10451000892F089549E255E020E030E04817590717
:1045200061F4220F331F220F331FF901E55BF24FB5
:104530008081882349F0815008952F5F3F4F455A6D
:104540005E4F2630310551F780E00895E82FF0E006
:10455000E154F04F108260E60E941F3F0895CF9310
:10456000DF932091180E213049F4D42FC62F0E94DA
:104570008A224D2F6C2F80690E949F1DDF91CF9161
:104580000895CF93DF932091180E233049F4D42F50
:10459000C62F0E948A224D2F6C2F80690E949F1D7A
:1045A000DF91CF9108951F93CF93DF93D62FC42F20
:1045B0002091180E2230B0F1233029F46F3719F40E
:1045C000443009F4C1E00E948A229091FA049F5F6E
:1045D0009093FA0420910301182F106BD21302C09C
:1045E000903290F04D2F441F4427441F63E6812FE3
:1045F0000E949F1D4D2F4F7762E6812F0E949F1DC5
:10460000D09303011092FA044C2F441F4427441FF7
:1046100066E0812F0E949F1D4C2F4F7766E2812F0D
:104620000E949F1DDF91CF911F910895EF92FF92FD
:104630001F93CF93DF93EC01FC01E75AFE4F81E01B
:10464000808310E07E018AECE80EF11CF701808186
:10465000181750F4FE01E10FF11DEC53FF4F80815C
:104660000E944F3F1F5FEECF87EA91E60197F1F777
:1046700000C0000010E0F7018081181760F4FE010F
:10468000E10FF11DEC53FF4F40E7BE0180810E9416
:10469000A53F1F5FF0CFDF91CF911F91FF90EF906B
:1046A0000895FC01E558FF4FE081F0E0EC5EF74F24
:1046B000E491DC01A451BF4FEC930895CF93DF93B5
:1046C000EC01CD51DF4FDC01A553BF4F9C01285EAB
:1046D0003F4FFC01458D4F3038F4E42FF0E0EC5EA5
:1046E000F74FE491E8830CC0E1EFE40FF0E0EE0F48
:1046F000FF1FE958F34E4591549111965C934E93E8
:104700000896219617968217930719F7DF91CF9194
:104710000895262F30E02F5F3F4F86539F4FFC01B7
:10472000808190E0281739071CF481E0860F0895F6
:1047300080E008950F931F93CF938C01FC01E25109
:10474000FF4F1082C0E0F801E653FF4F8081C81789
:1047500058F4F801EC0FF11DEC53FF4F68EF808126
:104760000E941F3FCF5FEFCFCF911F910F91089510
:104770000F931F93CF938C01C0E0F801E653FF4FD6
:104780008081C81780F4F801EC0FF11DEC53FF4F46
:104790008081E82FF0E0E154F04F108269EF0E9431
:1047A0001F3FCF5FEACFCF911F910F910895A0E0F7
:1047B000B0E0EDEDF3E20C941569FC01E651FF4F1A
:1047C000208131812F5F3F4F318320835C012AECB0
:1047D000A20EB11CF5012081222309F498C0862E77
:1047E0008C016C01EC01C553DF4F7C01F0EEEF0E44
:1047F000F11C912CF601848D488159812A813B81DD
:10480000240F351F3B832A8391E02417350708F0D6
:1048100090E09C838130D1F070F0823021F08330C1
:10482000C9F4732E2EC02417350718F40E94742281
:104830008D837D8026C0C901880F892F881F990B21
:104840009195782E37FD1DC070941BC0732E770C88
:10485000770817C0845090E0582F4427840F951F85
:104860008D5D974FFC01E30FF11D222F45911590AF
:10487000219DF0012095249FE00DF11D11244F2F63
:10488000742E992011F08820B9F0F70186818715E0
:1048900089F0612CF5018081681660F4F801E60D5D
:1048A000F11DEC53FF4F472D692D80810E948A3FF7
:1048B0006394F0CFF7017682F601878D8230E1F4C0
:1048C0008C81958D9F3028F4F7018081882319F021
:1048D00013C0882389F0712CF5018081781660F46B
:1048E000F801E70DF11DEC53FF4F692D60688081E1
:1048F0000E941F3F7394F0CF9394F8E0CF0ED11C29
:1049000027962FEFE21AF20A83E0981273CFCDB701
:10491000DEB7EEE00C943169CF93DF93FC01E353F3
:10492000FF4FDC01A052BF4FAC01485E5F4FEC016E
:104930002F8D213021F42283118210821C9208963F
:10494000379611968417950791F7DF91CF910895C7
:10495000CF93DF93FC01EA5AFE4F20813296DC01AF
:10496000A95ABE4F213019F410821C920CC0EC01E0
:10497000C151DF4F288121502C93DC01A758BF4F34
:104980008C9181508083DF91CF910895FC01E05B91
:10499000FE4F23E0DF01322F1D923A95E9F7E057F1
:1049A000F109DF011D922A95E9F73D96DC01A4513A
:1049B000BF4F2C912083EA59FF4F2FEF2083319670
:1049C00021E030E031832083EC5DF109208121304A
:1049D00011F021E001C02FEFFC01EA5AFE4F2083C5
:1049E0000E94A8240895FF920F931F93CF93DF9303
:1049F000EC01FE01E151FF4FF080E757F1094081E2
:104A00008E01095A1E4F443059F50E947422FE014E
:104A1000E85AFE4F982F9F70908382958F70D8012F
:104A20008C93C758DF4F9881292F30E08081482F21
:104A3000082E000C550B421753071CF0891B80836E
:104A4000F5CFF8018081482F082E000C550B2F2D33
:104A500030E0421753070CF447C08F198083F1CF21
:104A6000FE01EA5AFE4F8081D8019C91980F692F70
:104A7000092E000C770B2F2D30E06217730714F00E
:104A80001C9209C097FD03C0F80190832DC09FEFD1
:104A90009F0DD8019C93DE01A85ABE4F9C91980FA0
:104AA0009C93692F092E000C770B8E0107581F4F1E
:104AB000D8012C9130E06217730714F497FF14C0EB
:104AC000423079F481958083CE010E94A824B1E020
:104AD000BF1508F48ECFF8018081823008F089CFAD
:104AE00003C0CE010E94A824CDB7DEB7E5E00C9448
:104AF0003A69EF92FF920F931F93CF93DF938C014C
:104B0000D62FF42EE22EC0E0F801E653FF4F80814D
:104B1000C81768F4F801EC0FF11DEC53FF4F2E2D70
:104B20004F2D6D2F80810E94763FCF5FEDCFCDB7A7
:104B3000DEB7E6E00C943969272F660F221F660F57
:104B4000221F40E160E40E9479250895262F4FE05E
:104B500060E40E9479250895EF92FF920F931F93CE
:104B6000CF93DF93EC01042F7C018FE7E80EF11C5B
:104B7000F7018081813021F09DEF980F923088F409
:104B8000CE01895B9E4F0E94363EFE01E55BFE4FE3
:104B90009081F7012081233009F49695891770F5EB
:104BA0001EC0823039F5CE01895B9E4F0E94363E91
:104BB000FE01E55BFE4F9081891700F5182F110F5C
:104BC000FE01E10FF11DEC53FF4F202F4FE060E499
:104BD00080810E94763F612FCE010E948923C80FF9
:104BE000D11DCC53DF4F202F4FE060E488810E941D
:104BF000763F04C0642FCE010E94A625CDB7DEB754
:104C0000E6E00C943969CF93DF93FC0170A580E056
:104C1000772309F46AC0272F30E0E901CC0FDD1FAC
:104C2000DE01A20FB31FAE0FBF1F11969C91A90109
:104C30004F5F5F4F961759F0DA01AA0FBB1F4A0F5B
:104C40005B1FDF01A40FB51F872F7C91E1CF882365
:104C5000A1F0DA01AA0FBB1FA40FB51FAE0FBF1F33
:104C60006C9190E00196DC01AA0FBB1F8A0F9B1F7D
:104C7000DF01A80FB91F6C9309C0DA01AA0FBB1F8F
:104C8000A40FB51FAE0FBF1F8C9180A79081DF01CD
:104C9000999680E08917B9F06D91761312C0A82F0C
:104CA000B0E0692F70E061507109A617B7075CF496
:104CB000AE0FBF1F9A966C919A9799966C938F5FDF
:104CC000EECF8F5FE7CFDA01AA0FBB1F4A0F5B1F42
:104CD000DF01A40FB51F1C92C20FD31FCE0FDF1F21
:104CE0008FEF89831A8291509083DF91CF9108953D
:104CF000CF93DF93FC011082DC01149685E1ED0176
:104D000019928A95E9F7579687E0ED0119928A95ED
:104D1000E9F7118ECF0148962FEF21833396E817DC
:104D2000F907D1F7DF91CF9108950F931F93CF9398
:104D3000DF93EC018C0101581F4FF8019081AE0107
:104D40004B5D5E4F911104C0CA010E94782625C0B8
:104D5000FE01E653FF4F2081923031F430E02F5FA7
:104D60003F4F3595279503C0943009F4220FFE017B
:104D7000E95BFE4F24834F5F5F4F518340839E0169
:104D80002E5C3E4F3383228381E0933009F480E030
:104D900081958583CF010E94213EC65ADE4FF801DE
:104DA00080818883DF91CF911F910F910895CF93D8
:104DB000DF93FC011082DC01149684E2ED0119926C
:104DC0008A95E9F796968CE0ED0119928A95E9F7B4
:104DD00010A6CF0187962FEF21833396E817F907A6
:104DE000D1F7DF91CF910895CF93DF93EC01FC01D0
:104DF000E251FF4F108281519F4F0E94D726CE0172
:104E00008B5D9E4F0E947826DF91CF9108951F936E
:104E1000CF93DF93EC01FC01E158FF4F80818111BA
:104E200006C0CE018B5D9E4F0E94782605C0CE0144
:104E3000895B9E4F0E94213ECE0181519F4F0E946F
:104E4000D72610E0FE01E653FF4F8081181780F44B
:104E5000FE01E10FF11DEC53FF4F8081E82FF0E0E0
:104E6000E154F04F108260E70E941F3F1F5FEACFBE
:104E7000DF91CF911F910895EF92FF921F93CF93EF
:104E8000DF93EC010E945123CE010E945E23FE01BC
:104E9000E75AFE4F81E080837E0180E7E80EF11C37
:104EA00010E0F70121917F01412F60E3CE010E94C4
:104EB00079251F5F1730A9F7FE01E158FF4F908158
:104EC000E552FF4F8081981731F0CE010E940727ED
:104ED000CE010E949526DF91CF911F91FF90EF9018
:104EE00008951F93CF93DF93EC01162F0E9407279D
:104EF000FE01E653FF4F108280E091E0212F29232D
:104F000051F0208131E0320F3083DE01A20FB11D5C
:104F1000AC53BF4F8C93990F8F5F863079F7CE01DA
:104F20000E949526CE010E941623CE010E943C27A6
:104F3000DF91CF911F910895A0E0B0E0E2EAF7E29F
:104F40000C941C69EC01162F042FFC01E60FF11DD7
:104F5000D08040837C0187EAE81A8EEFF80AF701D7
:104F6000808181608083222339F0CE010E94D32288
:104F7000F701808182608083103738F4202F412F21
:104F800060E2CE010E9479251BC0173740F4202F24
:104F900040E9410F60E3CE010E9479250BC01F3725
:104FA00049F4D01669F0CE010E940727CE010E9475
:104FB000952606C01B3721F4CE010E9451231AC04A
:104FC00088EE810F883120F4CE010E945E2312C04A
:104FD000183781F4FE01E858FF4F8081813011F0CD
:104FE00081E001C08FEFFE01EA5AFE4F8083CE01BF
:104FF0000E94A824CDB7DEB7E7E00C943869FF9291
:105000000F931F93CF93DF938C01D62FF42EC62FCF
:105010002C2F30E08F2D90E08D0F911D2817390730
:105020008CF48C2F0E94EF208F3F51F00E94CB20F8
:105030000E94822020E0482F6C2FC8010E949C27EC
:10504000CF5FE6CFCDB7DEB7E5E00C943A696111EA
:1050500009C048E450E06AE377E088589F4F0E9417
:105060000468089548E468E70E94FF270895CF93F5
:10507000DF93EC01611107C040E750E066E877E09C
:105080000E94046804C040E760E00E94FF27CE0150
:105090000E941623DF91CF9108951F93CF93DF9342
:1050A000EC01162F0E94372811110AC044E550E088
:1050B00062E377E0CE0180599F4F0E94046805C0EB
:1050C00044E560E7CE010E94FF27CE010E943C2705
:1050D000DF91CF911F910895A0E0B0E0E2E7F8E200
:1050E0000C941C69EC01FC01E158FF4F8081811197
:1050F00006C0CE018B5D9E4F0E94782605C0CE0172
:10510000895B9E4F0E94173E8E0101511F4FC801BF
:105110000E94D726F12CFE01E653FF4F8081F8163E
:1051200050F4FE01EF0DF11DEC53FF4F80810E9402
:10513000A622F394F0CF7E018DEAE81A8EEFF80AEA
:10514000F70160816F3F31F1EB5DF10980818530BE
:1051500011F4D12C05C040E0CE010E94AF2217C04F
:10516000F8018081D81698F4ED0DF11D81A590E02D
:10517000FC01EE0FFF1F8E0F9F1FF801E80FF91FB4
:1051800040E06181CE010E94AF22D394E9CF8FEF3E
:10519000F7018083CDB7DEB7E7E00C943869FC01F6
:1051A000E251FF4F2081211102C00E946C28089516
:1051B000FC01E251FF4F10820E946C280895880F75
:1051C000991FFC01E559F74E25913491F901E60F3D
:1051D000F11DE60FF11D8591949108950F931F9392
:1051E000CF93DF938C01862FF801EF58FF4F20817A
:1051F0003CE0230390011124260F311D2038310596
:1052000014F02FE730E037FF02C020E030E030E854
:10521000239FE0011124F801EC58FF4F2081222345
:1052200051F06CE00E946D68692F822F90E00E941F
:10523000DF28C80FD91FF801EE58FF4F80819E016B
:10524000280F311D87FD3A95C901DF91CF911F913C
:105250000F9108958C589F4FFC012081222379F0F3
:10526000862F6CE00E946D68692F822F90E00E946B
:10527000DF2821E08F3F9F4719F420E001C021E0A3
:10528000822F0895CF93DF93FC01718D80E0772307
:1052900009F46AC0272F30E0E901CC0FDD1FDE01E1
:1052A000A20FB31FAE0FBF1F11969C91A9014F5FB4
:1052B0005F4F961759F0DA01AA0FBB1F4A0F5B1F09
:1052C000DF01A40FB51F872F7C91E1CF8823A1F0C8
:1052D000DA01AA0FBB1FA40FB51FAE0FBF1F6C9141
:1052E00090E00196DC01AA0FBB1F8A0F9B1FDF0114
:1052F000A80FB91F6C9309C0DA01AA0FBB1FA40F36
:10530000B51FAE0FBF1F8C91818F9081DF015A9620
:1053100080E08917B9F06D91761312C0A82FB0E024
:10532000692F70E061507109A617B7075CF4AE0FE2
:10533000BF1F5B966C915B975A966C938F5FEECF15
:105340008F5FE7CFDA01AA0FBB1F4A0F5B1FDF0198
:10535000A40FB51F1C92C20FD31FCE0FDF1F8FEFFC
:1053600089831A8291509083DF91CF910895A0E0B4
:10537000B0E0EDEBF9E20C941969EC01F62EE42EA5
:105380000E942A29882309F436C14E2D6F2DCE01A3
:105390000E94AF225E012FE7A20EB11CD5018C91B5
:1053A0008111A4C08E010B5D1E4F6F2DC8010E949C
:1053B0004229F80180819E01275D3E4F59018730C7
:1053C00081F4F901CE01825C9E4F2281211101C03E
:1053D000C08033968E179F07C1F76C2DC8010E94BD
:1053E0004229F50181E090819F3F29F08F5F33963C
:1053F0008830C9F701C0D82E8D2D90E09C012F5F19
:105400003F4FF901EE0FFF1F2E0F3F1FF801E20F74
:10541000F31FD80159962C912083FC01EE0FFF1F3A
:105420008E0F9F1FF801E80FF91FF182E282F80149
:10543000D18E6081DE01A15CBE4F40E050E0742F50
:10544000461708F0D1C09A018D914F5F5F4F90E0F1
:10545000FC01EE0FFF1F8E0F9F1FF801E80FF91FD1
:105460008181F81660F7862FF801E80FF11D918D04
:10547000928F81507817C0F3F801E20FF31FD28E9C
:105480006F5FD8016C936F2DCE010E94EE286C01E6
:10549000F801F080BB24B394BF1408F0B12C10E0E5
:1054A00000E0FE01E653FF4F80811817A0F4B6011B
:1054B000600F711DFE01E10FF11DEC53FF4F2B2D0D
:1054C0004E2D80810E94533FFE01ED58FF4F808199
:1054D000080F1F5FE6CFF1E0FF1508F089C0FE015D
:1054E000EB58FF4F8081811186C082C06E0129EB8D
:1054F000C21A2EEFD20A6F2DC6010E94523E182FFB
:105500008F3F29F46F2DC6010E94953E182FD501BB
:105510008C91FE01E55BFE4F823049F580811817C2
:1055200008F069C0D12EDD0C6F2DCE010E94EE284F
:105530008C01FE01ED0DF11DEC53FF4F20E04E2DCF
:10554000BC0180810E94533FFE01ED58FF4F8081D6
:10555000080F111D6D2DCE010E948923FE01E80F59
:10556000F11DEC53FF4F20E04E2DB80139C08430BF
:1055700001F5C12ED12C808190E095958795C816B4
:10558000D9068CF46F2DCE010E94EE28FE01ED5855
:10559000FF4F2081BC01129F600D711D1124CC0EA4
:1055A000DD1EF60119C04E2D6F2DCE010E94C122C5
:1055B0001FC080811817F8F46F2DCE010E94EE28CD
:1055C000FE01ED58FF4F2081BC01129F600D711D3F
:1055D0001124FE01E10FF11DEC53FF4F20E04E2D91
:1055E00080810E94533F04C0F801E60FF11D47CFB0
:1055F000CE010E948C24CDB7DEB7EAE00C94356969
:10560000A0E0B0E0E6E0FBE20C941B696F3F09F418
:10561000B9C0162FEC0140E00E94AF227E018FE757
:10562000E80EF11CF701808181116FC07E01FBED56
:10563000EF1AFEEFFF0AF701818D90E0FC01EE0FFB
:10564000FF1F8E0F9F1FF701E80FF91F0181612FC8
:10565000C7010E944229F7018081811112C010E028
:10566000FE01E653FF4F8081181708F08BC0FE0142
:10567000E10FF11DEC53FF4F80810E94A6221F5FB6
:10568000EFCF10137FC0F701818D90E0FC01EE0F8A
:10569000FF1F8E0F9F1FF701E80FF91F6181CE01D9
:1056A0000E94EE288C01D12CC12CFE01E653FF4F45
:1056B0008081D81600F5F701818D90E0FC01EE0F96
:1056C000FF1F8E0F9F1FF701E80FF91F42814F77D1
:1056D000B8016C0D711DFE01ED0DF11DEC53FF4F76
:1056E00021E080810E94533FFE01ED58FF4F8081F1
:1056F000C80ED394DACFFE01EB58FF4F80818111A1
:1057000041C0CE010E948C243DC0612FCE01895B37
:105710009E4F0E94E73EF7019081FE01E55BFE4F40
:10572000923091F49081891768F5182F110FFE01BE
:10573000E10FF11DEC53FF4F80810E94A622612FE3
:10574000CE010E9489231BC09430B1F490E02081E7
:1057500030E0359527958217930744F4C80FD91F79
:10576000CC53DF4F88810E94A6220CC040E0612FFD
:10577000CE010E94C12206C09081891718F4C80F7B
:10578000D11DEECFCDB7DEB7E8E00C943769CF92EC
:10579000DF92EF92FF921F93CF93DF93EC01162FCE
:1057A0000E942A298823D1F17E018EEEE80EF11C99
:1057B000F7018081882381F03596C95EDE4F8081B4
:1057C000181305C08181882311F080688183339686
:1057D000EC17FD07A1F722C06E01FFEECF0ED11C22
:1057E000612FC6010E940326FE01E958FF4F808108
:1057F000882331F0813049F431968081853029F455
:10580000612FCE010E94002B09C0F6018081811119
:1058100005C0F7011082CE010E946C28DF91CF9164
:105820001F91FF90EF90DF90CF900895A0E0B0E03F
:10583000ECE1FCE20C941C69EC01062F142F66329B
:1058400009F46AC078F46230D9F038F4613009F0B4
:105850008DC0242F220F41E116C06430C9F066309C
:10586000D1F184C0623630F4603608F05AC060343A
:1058700099F07CC06236C1F1633609F440C076C04D
:10588000242F220F42E160E4CE010E947925A1C0BD
:10589000242F220F43E1F7CFFC01E251FF4F4034A8
:1058A00018F081E0808395C010828C010D501F4F4D
:1058B0007C0189EEE81A8EEFF80AF801818187FFF2
:1058C00004C06081CE010E94C72B0D5F1F4F0E15D3
:1058D0001F0599F77EC0411102C080E001C080E839
:1058E000C35BDE4F888375C0DC01A15BBE4FFC014A
:1058F000E25BFE4F2081122B1C93108209C04111E4
:1059000002C080E001C080E8FE01E25BFE4F8083C0
:10591000C35BDE4F18825DC0FC01E35BFE4F8081FC
:10592000182BFE01E15BFE4FF0808F2D0E94EF20CF
:105930008F3F09F44EC00E94CB20FE01EF0DF11DF8
:105940006081063221F4612F0E94482007C0003692
:1059500011F04FEF01C041E00E945D209091170EC1
:1059600092FD37C020E0482F6F2D28C0802F0E9465
:10597000E9208F3F71F10E94CB207C01FC019581D1
:10598000D12CD91641F0F7018085081721F08681C6
:10599000081BD394F6CF612FC7010E94032090917A
:1059A000170E93FD16C0F7019081923058F496813E
:1059B0006181D99E600D112420E0482FCE010E9404
:1059C0009C2707C000E0212F4D2D60E0C7010E94F9
:1059D000F520CDB7DEB7E7E00C943869A0E0B0E081
:1059E000E4EFFCE20C9419698C01F62ED42E0E948F
:1059F0002A29882309F482C0D11005C06F2DC8015F
:105A00000E94C72B7BC0E801C151DF4F6F2DCE0133
:105A10000E940326888198012D503F4F59018C30F8
:105A200081F4F901C801895E9E4F2281211101C0D4
:105A3000C08033968E179F07C1F76C2DCE010E9450
:105A40000326F50181E090819F3F29F08F5F339617
:105A50008D30C9F701C0E82E8E2D90E09C012F5F9C
:105A60003F4FF901EE0FFF1F2E0F3F1FFE01E20F08
:105A7000F31F28A52083FC01EE0FFF1F8E0F9F1F31
:105A8000FE01E80FF91FF182D282E8A66881D801F1
:105A9000A85EBE4F40E050E0742F461758F59A01BB
:105AA0008D914F5F5F4F90E0FC01EE0FFF1F8E0F57
:105AB0009F1FFE01E80FF91F8181F81668F7862FF6
:105AC000FE01E80FF11D90A591A781507817C0F352
:105AD000FE01E20FF31FE1A66F5F6883F801E9584A
